:020000040000FA
:100000000C9462000C940B060C94E4050C948A008A
:100010000C948A000C948A000C948A000C948A0038
:100020000C948A000C948A000C948A000C948A0028
:100030000C948A000C948A000C948A000C948A0018
:100040000C949A050C948A060C9458060C9432066B
:100050000C948A000C948A000C948A000C948A00F8
:100060000C948A000C948A000000000024002700F1
:100070002A0000000000250028002B0000000000DE
:1000800023002600290004040404040404040202DA
:100090000202020203030303030301020408102007
:1000A0004080010204081020010204081020000012
:1000B0000008000201000003040700000000000027
:1000C0000000BE0611241FBECFEFD8E0DEBFCDBFBB
:1000D00011E0A0E0B1E0E6EBF6E102C005900D9280
:1000E000AE34B107D9F722E0AEE4B1E001C01D9211
:1000F000AB31B207E1F710E0C2E6D0E004C02197CF
:10010000FE010E94530BC136D107C9F70E940807B0
:100110000C94590B0C940000833081F028F481304A
:1001200099F08230A9F008958730A9F08830C9F09D
:100130008430B1F4809180008F7D03C08091800075
:100140008F7780938000089584B58F7784BD08955C
:1001500084B58F7DFBCF8091B0008F778093B00006
:1001600008958091B0008F7DF9CFCF93DF93282F32
:1001700030E0F901E255FF4F8491F901E656FF4F57
:10018000D491F901EA57FF4FC491CC23A1F081111A
:100190000E948C00EC2FF0E0EE0FFF1FE458FF4FA1
:1001A000A591B491EC91ED2381E090E009F480E019
:1001B000DF91CF91089580E090E0FACF1F93CF9325
:1001C000DF93282F30E0F901E255FF4F8491F901C8
:1001D000E656FF4FD491F901EA57FF4FC491CC2363
:1001E000A9F0162F81110E948C00EC2FF0E0EE0F89
:1001F000FF1FEE58FF4FA591B4918FB7F894EC9183
:10020000111108C0D095DE23DC938FBFDF91CF9111
:100210001F910895DE2BF8CFCF93DF9390E0FC0180
:10022000E656FF4F24918A579F4FFC018491882303
:10023000C9F090E0880F991FFC01E859FF4FA59184
:10024000B491FC01EE58FF4FC591D49161110DC0DE
:100250009FB7F8948C91209582238C9388812823D2
:1002600028839FBFDF91CF910895623051F49FB7EB
:10027000F8943C91822F809583238C93E8812E2BD8
:10028000EFCF8FB7F894EC912E2B2C938FBFEACF42
:100290008E50806480937C0080917A00806480938B
:1002A0007A0080917A0086FDFCCF80917800909151
:1002B000790008953FB7F8948091620190916301AD
:1002C000A0916401B091650126B5A89B05C02F3FA0
:1002D00019F00196A11DB11D3FBFBA2FA92F982F6C
:1002E0008827BC01CD01620F711D811D911D42E067
:1002F000660F771F881F991F4A95D1F708958F922F
:100300009F92AF92BF92CF92DF92EF92FF924B01FA
:100310005C010E945A016B017C010E945A016C1918
:100320007D098E099F09683E734081059105A8F3F8
:1003300021E0821A9108A108B10888EEC80E83E076
:10034000D81EE11CF11C81149104A104B10429F709
:10035000FF90EF90DF90CF90BF90AF909F908F90E5
:1003600008958230E8F4E82FF0E0EE0FFF1FE05030
:10037000FF4F71836083813041F0809169008C7FF1
:10038000482B40936900E89A089580916900837F23
:10039000440F551F440F551F482B40936900E99A9D
:1003A00008950895AF92BF92CF92DF92EF92FF929D
:1003B0000F931F93CF93DF936C017B018B01040F8D
:1003C000151FEB015E01AE18BF08C017D10759F029
:1003D0006991D601ED91FC910190F081E02DC6016B
:1003E0000995892B79F7C501DF91CF911F910F9165
:1003F000FF90EF90DF90CF90BF90AF900895FC01F9
:10040000538D448D252F30E0842F90E0821B930B79
:10041000541710F0CF96089501970895FC01918D1F
:10042000828D981761F0A28DAE0FBF2FB11D5D9622
:100430008C91928D9F5F9F73928F90E008958FEFC4
:100440009FEF0895FC01918D828D981731F0828D78
:10045000E80FF11D858D90E008958FEF9FEF0895CF
:10046000FC01918D228D892F90E0805C9F4F821B33
:1004700091098F739927089586E691E00E943002D2
:1004800021E0892B09F420E0822F089580E090E09C
:10049000892B29F00E943C0281110C9400000895E0
:1004A000FC01A48DA80FB92FB11DA35ABF4F2C91E9
:1004B000848D90E001968F739927848FA689B789E0
:1004C0002C93A089B1898C91837080648C93938DD7
:1004D000848D981306C00288F389E02D80818F7D7A
:1004E00080830895EF92FF920F931F93CF93DF9332
:1004F000EC0181E0888F9B8D8C8D98131AC0E88960
:10050000F989808185FF15C09FB7F894EE89FF892E
:100510006083E889F98980818370806480839FBFCC
:1005200081E090E0DF91CF911F910F91FF90EF90CC
:100530000895F62E0B8D10E00F5F1F4F0F731127DC
:10054000E02E8C8D8E110CC00FB607FCFACFE88917
:10055000F989808185FFF5CFCE010E945002F1CF4D
:10056000EB8DEC0FFD2FF11DE35AFF4FF0829FB78B
:10057000F8940B8FEA89FB8980818062CFCFCF937B
:10058000DF93EC01888D8823B9F0AA89BB89E889BB
:10059000F9898C9185FD03C0808186FD0DC00FB661
:1005A00007FCF7CF8C9185FFF2CF808185FFEDCFDF
:1005B000CE010E945002E9CFDF91CF9108950895B6
:1005C00090E080E0089580910401909105010E94DF
:1005D000B500892B51F460E083E10E94DE006AEFF0
:1005E00070E080E090E00C947F0161E083E10E9484
:1005F000DE0064E670E080E090E0F5CF80910601D7
:10060000909107010E94B500892B21F461E083E1FC
:100610000C94DE0060E083E10E94DE0064EF71E094
:1006200080E090E00C947F01FC0101900020E9F74C
:100630003197AF01481B590BBC0183E092E00C9449
:10064000D2018F929F92AF92BF920F931F93CF933D
:10065000DF93CDB7DEB7A1970FB6F894DEBF0FBE1C
:10066000CDBF19A2423008F44AE08E010F5D1F4F42
:10067000842E912CB12CA12CA50194010E94DF089D
:10068000E62FB901CA01EA30F4F4E05DD801EE9337
:100690008D01232B242B252B79F790E080E01097F8
:1006A00019F0CD010E941403A1960FB6F894DEBF95
:1006B0000FBECDBFDF91CF911F910F91BF90AF9033
:1006C0009F908F900895E95CE1CFCF93DF93EC0189
:1006D00060E08E810E94DE0061E08E810E94DE007B
:1006E00060E08E810E94DE008BE891E00197F1F7D7
:1006F000DF91CF910895CF92DF92EF92FF920F9307
:100700001F93CF93DF936C017C0187E0E80EF11C0F
:10071000D0E0C0E0062F10E0B8010C2E02C07595A5
:1007200067950A94E2F76170F70181917F010E9459
:10073000DE002196C430D10579F7C601DF91CF9153
:100740001F910F91FF90EF90DF90CF900C94650375
:10075000CF92DF92EF92FF920F931F93CF93DF938D
:10076000EC01F62E642F8C810E94DE008D818F3F7C
:1007700019F060E00E94DE000F2D10E08F8584FFED
:1007800025C06E0187E0C80ED11CF12CE12CB80108
:100790000E2C02C0759567950A94E2F76170F60118
:1007A00081916F010E94DE00FFEFEF1AFF0A88E0DF
:1007B000E816F10461F7CE01DF91CF911F910F91FF
:1007C000FF90EF90DF90CF900C946503B80184E028
:1007D000759567958A95E1F7CE010E947B036F2D91
:1007E000CE01DF91CF911F910F91FF90EF90DF909D
:1007F000CF900C947B0340E0682F83E092E00C9450
:10080000A803CF93DF93813029F090911202986072
:1008100090931202809316021092170280E4809344
:10082000180280E18093190280E580931A0261E04A
:10083000809107020E940C01809108028F3F19F0FD
:1008400061E00E940C0161E0809109020E940C01AC
:10085000C3E0D2E09E01235032408091120284FD19
:100860000BC084E090E021962817390744F461E03A
:100870008E810E940C01EECF88E090E0F4CF8BE3F4
:100880009DE00197F1F760E0809107020E94DE0091
:1008900060E0809109020E94DE00809108028F3F93
:1008A00019F060E00E94DE008091120284FD39C0E0
:1008B00063E083E092E00E947B03CBE4D6E4CE01C8
:1008C0000197F1F763E083E092E00E947B032197B8
:1008D000F1F763E083E092E00E947B0383E592E01E
:1008E0000197F1F762E083E092E00E947B03809140
:1008F000120280620E94FB0384E0809313028CE06A
:100900000E94FB0381E00E94FB038BE39FE10197C0
:10091000F1F782E08093140286E0DF91CF910C948E
:10092000FB0380620E94FB038BE496E40197F1F7DE
:100930008091120280620E94FB0383E592E001979E
:10094000F1F78091120280620E94FB03D0CF909158
:100950001602691710F06FEF690FE62FF0E0ED5FF8
:10096000FD4F9489890F80680C94FB0341E00E943D
:10097000A80381E090E008954F925F926F927F927A
:100980008F929F92AF92BF92CF92DF92EF92FF929F
:100990000F931F93CF936B017C01742EAC019B01CD
:1009A0000E94470B882399F086E291E0CF911F9136
:1009B0000F91FF90EF90DF90CF90BF90AF909F90FE
:1009C0008F907F906F905F904F900C94140346012E
:1009D0005701E894B7F82FEF3FEF4FE75FE7C50106
:1009E000B4010E94470B81110DC02FEF3FEF4FE77D
:1009F0005FE7C501B4010E947D0918161CF48AE264
:100A000091E0D4CF2FEF3FEF4FE75FE4C701B6018E
:100A10000E94D50A18161CF48EE291E0C7CF2FEF82
:100A20003FEF4FE75FECC701B6010E947D0987FDEC
:100A3000F3CF20E030E0A901C701B6010E947D0993
:100A400010E000E087FF0CC041E06DE283E092E03F
:100A50000E94A803F7FAF094F7F8F09401E010E090
:100A6000C0E060E070E080E09FE37C1641F020E0B1
:100A700030E040E251E40E948209CF5FF6CFA70147
:100A800096010E9411094B015C010E94F4092B019F
:100A90003C014AE00E942103080F191FCC23C9F131
:100AA000C301B2010E94230A9B01AC01C501B4013C
:100AB0000E9410094B015C0141E06EE283E092E08C
:100AC0000E94A8030F5F1F4FC15018F120E030E0D3
:100AD00040E251E4C501B4010E94DA0A2B013C0155
:100AE0000E94F4094B01B12CA12C4AE0C501B401CC
:100AF0000E942103080F191FC501B4010E94230A97
:100B00009B01AC01C301B2010E9410094B015C01C1
:100B1000DBCFC801CF911F910F91FF90EF90DF9035
:100B2000CF90BF90AF909F908F907F906F905F908D
:100B30004F9008951F920F920FB60F9211242F938A
:100B40003F938F939F93AF93BF9380915E0190915A
:100B50005F01A0916001B091610130915D0123E0DE
:100B6000230F2D3758F50196A11DB11D20935D016E
:100B700080935E0190935F01A0936001B093610147
:100B80008091620190916301A0916401B09165012F
:100B90000196A11DB11D8093620190936301A09302
:100BA0006401B0936501BF91AF919F918F913F9187
:100BB0002F910F900FBE0F901F90189526E8230FCE
:100BC0000296A11DB11DD2CF1F920F920FB60F92A8
:100BD00011242F933F934F935F936F937F938F9342
:100BE0009F93AF93BF93EF93FF93E0910201F09136
:100BF00003010995FF91EF91BF91AF919F918F9163
:100C00007F916F915F914F913F912F910F900FBE08
:100C10000F901F9018951F920F920FB60F921124EC
:100C20002F933F934F935F936F937F938F939F93F4
:100C3000AF93BF93EF93FF93E0910001F091010117
:100C40000995FF91EF91BF91AF919F918F917F9106
:100C50006F915F914F913F912F910F900FBE0F9029
:100C60001F9018951F920F920FB60F9211242F9379
:100C70003F934F935F936F937F938F939F93AF9324
:100C8000BF93EF93FF9386E691E00E945002FF919D
:100C9000EF91BF91AF919F918F917F916F915F91F4
:100CA0004F913F912F910F900FBE0F901F9018956D
:100CB0001F920F920FB60F9211242F938F939F9331
:100CC000EF93FF93E0917601F09177018081E091BD
:100CD0007C01F0917D0182FD1BC0908180917F019C
:100CE0008F5F8F7320918001821741F0E0917F0127
:100CF000F0E0EA59FE4F958F80937F01FF91EF91CD
:100D00009F918F912F910F900FBE0F901F9018956C
:100D10008081F4CF1F920F920FB60F9211242F9360
:100D20003F934F935F936F937F938F939F93AF9373
:100D3000BF93EF93FF930DB407FEFDCF8EB58B3AB3
:100D4000C1F481E080935C0160E083E10E94DE00F9
:100D5000FF91EF91BF91AF919F918F917F916F9193
:100D60005F914F913F912F910F900FBE0F901F9069
:100D700018958D3C69F710925C01EACFE6E6F1E048
:100D80001382128288EE93E0A0E0B0E08483958322
:100D9000A683B7838CE091E09183808385EC90E01B
:100DA0009587848784EC90E09787868780EC90E035
:100DB000918B808B81EC90E0938B828B82EC90E026
:100DC000958B848B86EC90E0978B868B118E128EA0
:100DD000138E148EE3E0F2E0138212828EE191E032
:100DE0009183808389E084838FEF858388E0868385
:100DF00084E0878385E0808786E0818787E082873B
:100E00001386148615861686178681E00C940104D5
:100E1000789484B5826084BD84B5816084BD85B5D5
:100E2000826085BD85B5816085BD80916E008160E1
:100E300080936E0010928100809181008260809387
:100E40008100809181008160809381008091800089
:100E50008160809380008091B10084608093B100B4
:100E60008091B00081608093B00080917A008460AE
:100E700080937A0080917A00826080937A008091DA
:100E80007A00816080937A0080917A0080688093F4
:100E90007A001092C100E0917601F091770182E032
:100EA0008083E0917201F09173011082E0917401EE
:100EB000F091750187E6808310927E01E0917A01BE
:100EC000F0917B0186E08083E0917801F0917901D7
:100ED000808180618083E0917801F0917901808147
:100EE00088608083E0917801F09179018081806849
:100EF0008083E0917801F091790180818F7D8083FA
:100F000061E083E10E940C01809104019091050150
:100F100062E00E940C01809106019091070160E05F
:100F20000E940C0164E670E080E090E00E947F0186
:100F300061E08CE00E940C018CB580648CBD8CB5A6
:100F400080688CBD10925C01809104019091050134
:100F5000029709F40DC18091040190910501039756
:100F600009F408C18FEF50E040E063EE72E00E94A8
:100F7000B1018091060190910701029709F4FCC02C
:100F80008091060190910701039709F4F7C08FEF54
:100F900041E050E06EEF72E00E94B10164E670E063
:100FA00080E090E00E947F0184E00E94010482E3DF
:100FB00091E00E941403CC24CA9483E0D82EE12C43
:100FC000F12CC0E0D0E080910601909107010E94D1
:100FD000B500892B81F480910401909105010E9454
:100FE000B500019741F480915C01811104C061E07A
:100FF00083E10E94DE008EE00E94480124EF31E090
:10100000DC010E944C0BA70196010E94C008CA0196
:10101000B9010E94250A6093580170935901809389
:101020005A0190935B018FE00E94480124EF31E068
:10103000DC010E944C0BA70196010E94C008CA0166
:10104000B9010E94250A20E030E048EC52E40E94F9
:1010500082096093540170935501809356019093D7
:10106000570180E10E944801BC01990F880B990B40
:101070000E94250A2AE038E240EA5BE30E94DA0A8D
:1010800020E030E040E250E40E9410092DEC3CECFE
:101090004CEC5DE30E948209609350017093510112
:1010A000809352019093530161E080E00E94A70475
:1010B0008AE391E00E94140361E086E00E94A704A5
:1010C000609158017091590180915A0190915B0192
:1010D00042E00E94BC0462E080E00E94A70480E439
:1010E00091E00E94140362E086E00E94A7046091F0
:1010F000540170915501809156019091570142E041
:101100000E94BC0463E080E00E94A70487E491E0B1
:101110000E94140363E086E00E94A70460915001DE
:1011200070915101809152019091530142E00E94CF
:10113000BC0464E670E080E090E00E947F01809152
:101140005C01882351F080914E0190914F010197ED
:1011500021F460E083E10E94DE00209709F433CFA0
:101160000E943C02882309F42ECF0E9400002BCF5E
:1011700080E0F9CE81E0F7CE80E00ACF81E008CFB1
:10118000052E97FB1EF400940E94D70857FD07D048
:101190000E94DF0807FC03D04EF40C94D70850954A
:1011A0004095309521953F4F4F4F5F4F0895909553
:1011B0008095709561957F4F8F4F9F4F0895A1E265
:1011C0001A2EAA1BBB1BFD010DC0AA1FBB1FEE1FC1
:1011D000FF1FA217B307E407F50720F0A21BB30B0C
:1011E000E40BF50B661F771F881F991F1A9469F788
:1011F00060957095809590959B01AC01BD01CF01E4
:101200000895A29FB001B39FC001A39F700D811DDF
:101210001124911DB29F700D811D1124911D0895FF
:101220005058BB27AA270E9428090C949B0A0E94A9
:101230008D0A38F00E94940A20F039F49F3F19F487
:1012400026F40C948A0A0EF4E095E7FB0C94840AC9
:10125000E92F0E94AC0A58F3BA1762077307840794
:10126000950720F079F4A6F50C94CE0A0EF4E095DB
:101270000B2EBA2FA02D0B01B90190010C01CA0150
:10128000A0011124FF27591B99F0593F50F4503EFB
:1012900068F11A16F040A22F232F342F4427585FED
:1012A000F3CF469537952795A795F0405395C9F705
:1012B0007EF41F16BA0B620B730B840BBAF09150BD
:1012C000A1F0FF0FBB1F661F771F881FC2F70EC05C
:1012D000BA0F621F731F841F48F48795779567952F
:1012E000B795F7959E3F08F0B0CF9395880F08F01B
:1012F0009927EE0F9795879508950E94600A08F444
:1013000081E008950E9496090C949B0A0E94940A19
:1013100058F00E948D0A40F029F45F3F29F00C94A8
:10132000840A51110C94CF0A0C948A0A0E94AC0AC8
:1013300068F39923B1F3552391F3951B550BBB2704
:10134000AA2762177307840738F09F5F5F4F220F49
:10135000331F441FAA1FA9F335D00E2E3AF0E0E840
:1013600032D091505040E695001CCAF72BD0FE2F8A
:1013700029D0660F771F881FBB1F2617370748071E
:10138000AB07B0E809F0BB0B802DBF01FF279358D6
:101390005F4F3AF09E3F510578F00C94840A0C940C
:1013A000CF0A5F3FE4F3983ED4F38695779567952F
:1013B000B795F7959F5FC9F7880F911D969587950B
:1013C00097F90895E1E0660F771F881FBB1F62172A
:1013D00073078407BA0720F0621B730B840BBA0BE8
:1013E000EE1F88F7E09508950E94B40A88F09F5791
:1013F00098F0B92F9927B751B0F0E1F0660F771F39
:10140000881F991F1AF0BA95C9F714C0B13091F02E
:101410000E94CE0AB1E008950C94CE0A672F782F6F
:101420008827B85F39F0B93FCCF3869577956795F3
:10143000B395D9F73EF490958095709561957F4F5F
:101440008F4F9F4F0895E89409C097FB3EF4909505
:101450008095709561957F4F8F4F9F4F9923A9F08D
:10146000F92F96E9BB279395F6958795779567951C
:10147000B795F111F8CFFAF4BB0F11F460FF1BC060
:101480006F5F7F4F8F4F9F4F16C0882311F096E9F3
:1014900011C0772321F09EE8872F762F05C06623A1
:1014A00071F096E8862F70E060E02AF09A95660F5A
:1014B000771F881FDAF7880F9695879597F9089513
:1014C000990F0008550FAA0BE0E8FEEF1616170655
:1014D000E807F907C0F012161306E407F50798F0BD
:1014E000621B730B840B950B39F40A2661F0232BD6
:1014F000242B252B21F408950A2609F4A140A69552
:101500008FEF811D811D089597F99F6780E870E036
:1015100060E008959FEF80EC089500240A94161669
:10152000170618060906089500240A9412161306D1
:10153000140605060895092E0394000C11F488235F
:1015400052F0BB0F40F4BF2B11F460FF04C06F5F7B
:101550007F4F8F4F9F4F089557FD9058440F551F51
:1015600059F05F3F71F04795880F97FB991F61F025
:101570009F3F79F087950895121613061406551F9C
:10158000F2CF4695F1DF08C0161617061806991F08
:10159000F1CF86957105610508940895E894BB27FD
:1015A00066277727CB0197F908950E94600A08F40F
:1015B0008FEF08950E94ED0A0C949B0A0E948D0AF9
:1015C00038F00E94940A20F0952311F00C94840ABC
:1015D0000C948A0A11240C94CF0A0E94AC0A70F36E
:1015E000959FC1F3950F50E0551F629FF001729FC8
:1015F000BB27F00DB11D639FAA27F00DB11DAA1FD7
:10160000649F6627B00DA11D661F829F2227B00D23
:10161000A11D621F739FB00DA11D621F839FA00DAE
:10162000611D221F749F3327A00D611D231F849FFE
:10163000600D211D822F762F6A2F11249F57504055
:101640009AF0F1F088234AF0EE0FFF1FBB1F661FD0
:10165000771F881F91505040A9F79E3F510580F099
:101660000C94840A0C94CF0A5F3FE4F3983ED4F3C1
:10167000869577956795B795F795E7959F5FC1F73D
:10168000FE2B880F911D9695879597F908950E94D6
:10169000600A880B990B08950E940109B7FF08950D
:1016A000821B930B0895EE0FFF1F0590F491E02D20
:1016B0000994F894FFCFD101D1010300020000008A
:1016C00000007202D201FF01BF0230020E022202AC
:1016D00000000000B604D201E002DF026E616E007D
:1016E000696E66006F766600506F73746520310016
:1016F000542843293A0054286D56293A004328417A
:04170000293A000082
:107E0000112484B714BE81FFF0D085E080938100F7
:107E100082E08093C00088E18093C10086E0809377
:107E2000C20080E18093C4008EE0C9D0259A86E02C
:107E300020E33CEF91E0309385002093840096BBD3
:107E4000B09BFECF1D9AA8958150A9F7CC24DD24C4
:107E500088248394B5E0AB2EA1E19A2EF3E0BF2EE7
:107E6000A2D0813461F49FD0082FAFD0023811F036
:107E7000013811F484E001C083E08DD089C08234E0
:107E800011F484E103C0853419F485E0A6D080C0E4
:107E9000853579F488D0E82EFF2485D0082F10E0AE
:107EA000102F00270E291F29000F111F8ED06801E7
:107EB0006FC0863521F484E090D080E0DECF843638
:107EC00009F040C070D06FD0082F6DD080E0C81688
:107ED00080E7D80618F4F601B7BEE895C0E0D1E017
:107EE00062D089930C17E1F7F0E0CF16F0E7DF06D8
:107EF00018F0F601B7BEE89568D007B600FCFDCFD4
:107F0000A601A0E0B1E02C9130E011968C91119780
:107F100090E0982F8827822B932B1296FA010C0160
:107F200087BEE89511244E5F5F4FF1E0A038BF0790
:107F300051F7F601A7BEE89507B600FCFDCF97BE46
:107F4000E89526C08437B1F42ED02DD0F82E2BD052
:107F50003CD0F601EF2C8F010F5F1F4F84911BD097
:107F6000EA94F801C1F70894C11CD11CFA94CF0C13
:107F7000D11C0EC0853739F428D08EE10CD085E9AC
:107F80000AD08FE07ACF813511F488E018D01DD067
:107F900080E101D065CF982F8091C00085FFFCCF94
:107FA0009093C60008958091C00087FFFCCF809118
:107FB000C00084FD01C0A8958091C6000895E0E648
:107FC000F0E098E1908380830895EDDF803219F02E
:107FD00088E0F5DFFFCF84E1DECF1F93182FE3DFCA
:107FE0001150E9F7F2DF1F91089580E0E8DFEE27F6
:047FF000FF270994CA
:027FFE00040479
:00000001FF
