:100000000C9462000C940F060C94E8050C948A0082
:100010000C948A000C948A000C948A000C948A0038
:100020000C948A000C948A000C948A000C948A0028
:100030000C948A000C948E060C948A000C948A000E
:100040000C949E050C948A000C945C060C94360665
:100050000C948A000C948A000C948A000C948A00F8
:100060000C948A000C948A000000000023002600F3
:10007000290000000000240027002A0000000000E2
:10008000250028002B0004040404040404040202D4
:100090000202020203030303030301020408102007
:1000A0004080010204081020010204081020000012
:1000B0000008000201000003040700000000000027
:1000C0000000B50611241FBECFEFD8E0DEBFCDBFC4
:1000D00011E0A0E0B1E0E2E6F0E102C005900D928F
:1000E000AE32B107D9F722E0AEE2B1E001C01D9215
:1000F000AA30B207E1F710E0C2E6D0E004C02197D1
:10010000FE010E942908C136D107C9F70E94FF06E7
:100110000C942F080C940000833081F028F4813077
:1001200099F08230A9F008958730A9F08830C9F09D
:100130008430B1F4809180008F7D03C08091800075
:100140008F7780938000089584B58F7784BD08955C
:1001500084B58F7DFBCF8091B0008F778093B00006
:1001600008958091B0008F7DF9CF1F93CF93DF93D7
:10017000282F30E0F901E255FF4F8491F901E6564E
:10018000FF4FD491F901EA57FF4FC491CC23A9F056
:10019000162F81110E948C00EC2FF0E0EE0FFF1F54
:1001A000E458FF4FA591B4918FB7F894EC911111D9
:1001B00008C0D095DE23DC938FBFDF91CF911F91D4
:1001C0000895DE2BF8CFCF93DF9390E0FC01E65645
:1001D000FF4F24918A579F4FFC0184918823D1F0CF
:1001E00090E0880F991FFC01EE58FF4FA591B49144
:1001F000FC01E458FF4FC591D491623071F49FB770
:10020000F8943C91822F809583238C93E8812E2B48
:1002100028839FBFDF91CF9108958FB7F894EC9119
:100220002E2B2C938FBFF6CF3FB7F89480915101BE
:1002300090915201A0915301B091540126B5A89B11
:1002400005C02F3F19F00196A11DB11D3FBFBA2F68
:10025000A92F982F8827BC01CD01620F711D811D28
:10026000911D42E0660F771F881F991F4A95D1F7AD
:1002700008958F929F92AF92BF92CF92DF92EF92AA
:10028000FF924B015C010E9414016B017C010E94F2
:1002900014016C197D098E099F09683E7340810520
:1002A0009105A8F321E0821A9108A108B10888EE0F
:1002B000C80E83E0D81EE11CF11C81149104A10436
:1002C000B10429F7FF90EF90DF90CF90BF90AF90EF
:1002D0009F908F9008950895AF92BF92CF92DF9232
:1002E000EF92FF920F931F93CF93DF936C017B01EB
:1002F0008B01040F151FEB015E01AE18BF08C0177C
:10030000D10759F06991D601ED91FC910190F081EE
:10031000E02DC6010995892B79F7C501DF91CF91B1
:100320001F910F91FF90EF90DF90CF90BF90AF9013
:100330000895FC01538D448D252F30E0842F90E0EB
:10034000821B930B541710F0CF96089501970895D0
:10035000FC01918D828D981761F0A28DAE0FBF2F99
:10036000B11D5D968C91928D9F5F9F73928F90E0EF
:1003700008958FEF9FEF0895FC01918D828D98175E
:1003800031F0828DE80FF11D858D90E008958FEF9B
:100390009FEF0895FC01918D228D892F90E0805C64
:1003A0009F4F821B91098F739927089585E591E0EE
:1003B0000E94CA0121E0892B09F420E0822F0895D0
:1003C00080E090E0892B29F00E94D60181110C94E5
:1003D00000000895FC01A48DA80FB92FB11DA35AE8
:1003E000BF4F2C91848D90E001968F739927848F55
:1003F000A689B7892C93A089B1898C918370806478
:100400008C93938D848D981306C00288F389E02D18
:1004100080818F7D80830895EF92FF920F931F93C9
:10042000CF93DF93EC0181E0888F9B8D8C8D9813A7
:100430001AC0E889F989808185FF15C09FB7F894B3
:10044000EE89FF896083E889F989808183708064FF
:1004500080839FBF81E090E0DF91CF911F910F914A
:10046000FF90EF900895F62E0B8D10E00F5F1F4F59
:100470000F731127E02E8C8D8E110CC00FB607FC68
:10048000FACFE889F989808185FFF5CFCE010E94F6
:10049000EA01F1CFEB8DEC0FFD2FF11DE35AFF4F79
:1004A000F0829FB7F8940B8FEA89FB898081806284
:1004B000CFCFCF93DF93EC01888D8823B9F0AA8941
:1004C000BB89E889F9898C9185FD03C0808186FD0F
:1004D0000DC00FB607FCF7CF8C9185FFF2CF80815E
:1004E00085FFEDCFCE010E94EA01E9CFDF91CF91E8
:1004F00008950895089590E080E008958FEF8EBDEF
:100500000DB407FEFDCF6AE070E080E090E00E944D
:1005100039018EB508958EBD0DB407FEFDCF089547
:10052000CF93DF93E0EBF0E08491ECE9F0E0D4913D
:10053000E8E8F0E0C491CC2359F181110E948C00CD
:10054000EC2FF0E0EE0FFF1FE859FF4FA591B4919B
:10055000EC91ED23E9F060E08AE00E94B50060E0F4
:1005600082E10E94B50060E083E10E94B5008DEC5D
:100570000E948B0261E08AE00E94B50061E082E1A6
:100580000E94B50061E083E1DF91CF910C94B5004A
:1005900060E08AE00E94B50060E082E10E94B50060
:1005A00060E083E10E94B5008BEAE2CFCF93DF9356
:1005B00060E08AE00E94B50080E20E948B0262E067
:1005C00070E080E090E00E9439010E947E02C2E467
:1005D000D1E090E09983888362E070E080E090E071
:1005E0000E9439010E947E0290E09B838A8362E030
:1005F00070E080E090E00E9439010E947E0290E06D
:100600009D838C8362E070E080E090E00E9439017D
:100610000E947E0290E09F838E8362E070E080E023
:1006200090E00E9439010E947E0290E099878887BD
:1006300062E070E080E090E00E94390161E08AE0D1
:100640000E94B50060E082E10E94B50080E20E9455
:100650008B0262E070E080E090E00E9439010E942D
:100660007E02C8E3D1E090E09983888362E070E085
:1006700080E090E00E9439010E947E0290E09B831E
:100680008A8362E070E080E090E00E9439010E947D
:100690007E0290E09D838C8362E070E080E090E0D9
:1006A0000E9439010E947E0290E09F838E8362E067
:1006B00070E080E090E00E9439010E947E0290E0AC
:1006C0009987888762E070E080E090E00E943901BD
:1006D00061E082E10E94B50060E083E10E94B50024
:1006E00080E20E948B0262E070E080E090E00E9475
:1006F00039010E947E02CEE2D1E090E099838883A6
:1007000062E070E080E090E00E9439010E947E0289
:1007100090E09B838A8362E070E080E090E00E943A
:1007200039010E947E0290E09D838C8362E070E03C
:1007300080E090E00E9439010E947E0290E09F8359
:100740008E8362E070E080E090E00E9439010E94B8
:100750007E0290E09987888762E070E080E090E018
:100760000E94390161E083E1DF91CF910C94B500E3
:10077000FC0101900020E9F73197AF01481B590BAC
:10078000BC0182EF91E00C946C01CF93DF93EC01FC
:1007900060E08E810E94B50061E08E810E94B5000C
:1007A00060E08E810E94B5008BE891E00197F1F73F
:1007B000DF91CF910895CF92DF92EF92FF920F9346
:1007C0001F93CF93DF936C017C0187E0E80EF11C4F
:1007D000D0E0C0E0062F10E0B8010C2E02C07595E5
:1007E00067950A94E2F76170F70181917F010E9499
:1007F000B5002196C430D10579F7C601DF91CF91BC
:100800001F910F91FF90EF90DF90CF900C94C50354
:10081000CF92DF92EF92FF920F931F93CF93DF93CC
:10082000EC01F62E642F8C810E94B5008D818F3FE4
:1008300019F060E00E94B5000F2D10E08F8584FF55
:1008400025C06E0187E0C80ED11CF12CE12CB80147
:100850000E2C02C0759567950A94E2F76170F60157
:1008600081916F010E94B500FFEFEF1AFF0A88E047
:10087000E816F10461F7CE01DF91CF911F910F913E
:10088000FF90EF90DF90CF900C94C503B80184E007
:10089000759567958A95E1F7CE010E94DB036F2D70
:1008A000CE01DF91CF911F910F91FF90EF90DF90DC
:1008B000CF900C94DB0340E0682F82EF91E00C9422
:1008C0000804CF93DF93813029F090910102986062
:1008D00090930102809305021092060280E48093B7
:1008E000070280E18093080280E58093090261E0BD
:1008F0008091F6010E94E3008091F7018F3F19F08B
:1009000061E00E94E30061E08091F8010E94E30051
:10091000C2EFD1E09E01225F31408091010284FD4F
:100920000BC084E090E021962817390744F461E079
:100930008E810E94E300EECF88E090E0F4CF8BE35D
:100940009DE00197F1F760E08091F6010E94B5000B
:1009500060E08091F8010E94B5008091F7018F3F1F
:1009600019F060E00E94B5008091010284FD39C059
:1009700063E082EF91E00E94DB03CBE4D6E4CE019A
:100980000197F1F763E082EF91E00E94DB0321978A
:10099000F1F763E082EF91E00E94DB0383E592E0F0
:1009A0000197F1F762E082EF91E00E94DB03809112
:1009B000010280620E945B0484E0809302028CE06A
:1009C0000E945B0481E00E945B048BE39FE101973E
:1009D000F1F782E08093030286E0DF91CF910C94DF
:1009E0005B0480620E945B048BE496E40197F1F75C
:1009F0008091010280620E945B0483E592E001978E
:100A0000F1F78091010280620E945B04D0CF909147
:100A10000502891710F08FEF890FE82FF0E0EE50F4
:100A2000FE4F848980680C945B0441E00E940804B6
:100A300081E090E008958F929F92AF92BF92CF9203
:100A4000DF92EF92FF92CF93DF93CDB7DEB7A197FE
:100A50000FB6F894DEBF0FBECDBF6C01990FEE0844
:100A6000FF08F7FE47C041E06DE282EF91E00E948F
:100A7000080422273327A9012C193D094E095F09D3
:100A800019A2CE0181967C019AE0892E912CA12C8D
:100A9000B12CCA01B901A50194010E940708605D4B
:100AA000F70162937F01211531054105510589F751
:100AB00090E080E0309719F0CF010E94B8037C01EC
:100AC000FFEFEF1AFF0A84E291E00E94B8038E0D57
:100AD0009F1DA1960FB6F894DEBF0FBECDBFDF916C
:100AE000CF91FF90EF90DF90CF90BF90AF909F900D
:100AF0008F900895A701960119A2CE0181967C01DD
:100B00008AE0882E912CA12CB12CCA01B901A50133
:100B100094010E940708605DF70162937F0121152F
:100B200031054105510589F7309729F0CF010E9421
:100B3000B8037C01C8CFF12CE12CC5CF1F920F92D6
:100B40000FB60F9211242F933F938F939F93AF93E0
:100B5000BF9380914D0190914E01A0914F01B091B2
:100B6000500130914C0123E0230F2D3758F50196A9
:100B7000A11DB11D20934C0180934D0190934E0116
:100B8000A0934F01B0935001809151019091520177
:100B9000A0915301B09154010196A11DB11D809304
:100BA000510190935201A0935301B0935401BF910E
:100BB000AF919F918F913F912F910F900FBE0F900A
:100BC0001F90189526E8230F0296A11DB11DD2CFC4
:100BD0001F920F920FB60F9211242F933F934F93B2
:100BE0005F936F937F938F939F93AF93BF93EF9395
:100BF000FF93E0910201F09103010995FF91EF91BC
:100C0000BF91AF919F918F917F916F915F914F9124
:100C10003F912F910F900FBE0F901F9018951F922C
:100C20000F920FB60F9211242F933F934F935F9320
:100C30006F937F938F939F93AF93BF93EF93FF93A4
:100C4000E0910001F09101010995FF91EF91BF91B1
:100C5000AF919F918F917F916F915F914F913F9154
:100C60002F910F900FBE0F901F9018951F920F920B
:100C70000FB60F9211242F933F934F935F936F936F
:100C80007F938F939F93AF93BF93EF93FF9385E5EC
:100C900091E00E94EA01FF91EF91BF91AF919F9186
:100CA0008F917F916F915F914F913F912F910F9015
:100CB0000FBE0F901F9018951F920F920FB60F92B4
:100CC00011242F938F939F93EF93FF93E0916501EE
:100CD000F09166018081E0916B01F0916C0182FDE1
:100CE0001BC0908180916E018F5F8F7320916F0187
:100CF000821741F0E0916E01F0E0EB5AFE4F958FC4
:100D000080936E01FF91EF919F918F912F910F90A2
:100D10000FBE0F901F9018958081F4CF1F920F92F5
:100D20000FB60F9211242F933F934F935F936F93BE
:100D30007F938F939F93AF93BF93EF93FF93E09134
:100D40000401F09105010995FF91EF91BF91AF91D9
:100D50009F918F917F916F915F914F913F912F91D3
:100D60000F900FBE0F901F901895E5E5F1E01382EC
:100D7000128288EE93E0A0E0B0E084839583A6839E
:100D8000B7838AE091E09183808385EC90E095873A
:100D9000848784EC90E09787868780EC90E0918B45
:100DA000808B81EC90E0938B828B82EC90E0958B32
:100DB000848B86EC90E0978B868B118E128E138E2F
:100DC000148EE2EFF1E0138212828CE191E09183C4
:100DD000808389E084838FEF858388E0868384E045
:100DE000878385E0808786E0818787E08287138616
:100DF000148615861686178681E00C946104789413
:100E000084B5826084BD84B5816084BD85B582600F
:100E100085BD85B5816085BD80916E0081608093C0
:100E20006E00109281008091810082608093810029
:100E30008091810081608093810080918000816039
:100E4000809380008091B10084608093B100809194
:100E5000B00081608093B00080917A0084608093BC
:100E60007A0080917A00826080937A0080917A0083
:100E7000816080937A0080917A00806880937A0004
:100E80001092C100E0916501F091660182E08083DB
:100E9000E0916101F09162011082E0916301F091B3
:100EA000640187E6808310926D01E0916901F09101
:100EB0006A0186E08083E0916701F091680180819A
:100EC00080618083E0916701F09168018081886092
:100ED0008083E0916701F091680180818068808360
:100EE000E0916701F091680180818F7D808362E0ED
:100EF00082E00E94E30080E992E0909301018093F8
:100F00000001809169008C7F816080936900E89A7C
:100F100084E00E94610480E00E94070587E291E07E
:100F20000E94B80361E08BE00E94E30061E08DE085
:100F30000E94E30061E08AE00E94E30081E58CBD4D
:100F400061E08AE00E94E30061E08AE00E94B5006F
:100F500061E082E10E94E30061E082E10E94B5006D
:100F600061E083E10E94E30061E083E10E94B5005B
:100F700080E180938100109280008DE89BE5909342
:100F800087008093860085E18093810086ED92E062
:100F9000909305018093040181E080936F00C0E08D
:100FA000D0E081E00E9407058091460190914701C1
:100FB0000E941B056AE070E080E090E00E94390129
:100FC00082E00E94070580913C0190913D010E94C2
:100FD0001B056AE070E080E090E00E94390183E048
:100FE0000E94070580913201909133010E941B05F8
:100FF00064E670E080E090E00E943901209789F279
:101000000E94D601882369F20E940000CACFA1E2A3
:101010001A2EAA1BBB1BFD010DC0AA1FBB1FEE1F72
:10102000FF1FA217B307E407F50720F0A21BB30BBD
:10103000E40BF50B661F771F881F991F1A9469F739
:1010400060957095809590959B01AC01BD01CF0195
:101050000895EE0FFF1F0590F491E02D0994F89488
:02106000FFCFC0
:101062006B016B017902000000000C026C01990116
:101072005902CA01A801BC010000000015056C015B
:0E1082007B027A020D0A004D45535452450080
:00000001FF
