:020000040000FA
:100000000C9462000C946D040C9446040C948A00C9
:100010000C948A000C948A000C948A000C948A0038
:100020000C948A000C948A000C948A000C948A0028
:100030000C948A000C948A000C948A000C948A0018
:100040000C94FC030C948A000C94BA040C94940451
:100050000C948A000C948A000C948A000C948A00F8
:100060000C948A000C948A000000000023002600F3
:10007000290000000000240027002A0000000000E2
:10008000250028002B0004040404040404040202D4
:100090000202020203030303030301020408102007
:1000A0004080010204081020010204081020000012
:1000B0000008000201000003040700000000000027
:1000C0000000EC0411241FBECFEFD8E0DEBFCDBF8F
:1000D00011E0A0E0B1E0E8EBFCE002C005900D9279
:1000E000AA32B107D9F721E0AAE2B1E001C01D921E
:1000F000AB3EB207E1F710E0C2E6D0E004C02197C2
:10010000FE010E945406C136D107C9F70E94360588
:100110000C945A060C940000833081F028F481304E
:1001200099F08230A9F008958730A9F08830C9F09D
:100130008430B1F4809180008F7D03C08091800075
:100140008F7780938000089584B58F7784BD08955C
:1001500084B58F7DFBCF8091B0008F778093B00006
:1001600008958091B0008F7DF9CF1F93CF93DF93D7
:10017000282F30E0F901E255FF4F8491F901E6564E
:10018000FF4FD491F901EA57FF4FC491CC23A9F056
:10019000162F81110E948C00EC2FF0E0EE0FFF1F54
:1001A000E458FF4FA591B4918FB7F894EC911111D9
:1001B00008C0D095DE23DC938FBFDF91CF911F91D4
:1001C0000895DE2BF8CFCF93DF9390E0FC01E65645
:1001D000FF4F24918A579F4FFC0184918823D1F0CF
:1001E00090E0880F991FFC01EE58FF4FA591B49144
:1001F000FC01E458FF4FC591D491623071F49FB770
:10020000F8943C91822F809583238C93E8812E2B48
:1002100028839FBFDF91CF9108958FB7F894EC9119
:100220002E2B2C938FBFF6CF3FB7F89480913201DD
:1002300090913301A0913401B091350126B5A89B6E
:1002400005C02F3F19F00196A11DB11D3FBFBA2F68
:10025000A92F982F8827BC01CD01620F711D811D28
:10026000911D42E0660F771F881F991F4A95D1F7AD
:1002700008958F929F92AF92BF92CF92DF92EF92AA
:10028000FF924B015C010E9414016B017C010E94F2
:1002900014016C197D098E099F09683E7340810520
:1002A0009105A8F321E0821A9108A108B10888EE0F
:1002B000C80E83E0D81EE11CF11C81149104A10436
:1002C000B10429F7FF90EF90DF90CF90BF90AF90EF
:1002D0009F908F9008950895AF92BF92CF92DF9232
:1002E000EF92FF920F931F93CF93DF936C017B01EB
:1002F0008B01040F151FEB015E01AE18BF08C0177C
:10030000D10759F06991D601ED91FC910190F081EE
:10031000E02DC6010995892B79F7C501DF91CF91B1
:100320001F910F91FF90EF90DF90CF90BF90AF9013
:100330000895FC01538D448D252F30E0842F90E0EB
:10034000821B930B541710F0CF96089501970895D0
:10035000FC01918D828D981761F0A28DAE0FBF2F99
:10036000B11D5D968C91928D9F5F9F73928F90E0EF
:1003700008958FEF9FEF0895FC01918D828D98175E
:1003800031F0828DE80FF11D858D90E008958FEF9B
:100390009FEF0895FC01918D228D892F90E0805C64
:1003A0009F4F821B91098F739927089586E391E0EF
:1003B0000E94CA0121E0892B09F420E0822F0895D0
:1003C00080E090E0892B29F00E94D60181110C94E5
:1003D00000000895FC01A48DA80FB92FB11DA35AE8
:1003E000BF4F2C91848D90E001968F739927848F55
:1003F000A689B7892C93A089B1898C918370806478
:100400008C93938D848D981306C00288F389E02D18
:1004100080818F7D80830895EF92FF920F931F93C9
:10042000CF93DF93EC0181E0888F9B8D8C8D9813A7
:100430001AC0E889F989808185FF15C09FB7F894B3
:10044000EE89FF896083E889F989808183708064FF
:1004500080839FBF81E090E0DF91CF911F910F914A
:10046000FF90EF900895F62E0B8D10E00F5F1F4F59
:100470000F731127E02E8C8D8E110CC00FB607FC68
:10048000FACFE889F989808185FFF5CFCE010E94F6
:10049000EA01F1CFEB8DEC0FFD2FF11DE35AFF4F79
:1004A000F0829FB7F8940B8FEA89FB898081806284
:1004B000CFCFCF93DF93EC01888D8823B9F0AA8941
:1004C000BB89E889F9898C9185FD03C0808186FD0F
:1004D0000DC00FB607FCF7CF8C9185FFF2CF80815E
:1004E00085FFEDCFCE010E94EA01E9CFDF91CF91E8
:1004F0000895089590E080E00895CF93DF93EC0194
:1005000060E08E810E94B50061E08E810E94B5009E
:1005100060E08E810E94B5008BE891E00197F1F7D1
:10052000DF91CF910895CF92DF92EF92FF920F93D8
:100530001F93CF93DF936C017C0187E0E80EF11CE1
:10054000D0E0C0E0062F10E0B8010C2E02C0759577
:1005500067950A94E2F76170F70181917F010E942B
:10056000B5002196C430D10579F7C601DF91CF914E
:100570001F910F91FF90EF90DF90CF900C947D0230
:10058000CF92DF92EF92FF920F931F93CF93DF935F
:10059000EC01F62E642F8C810E94B5008D818F3F77
:1005A00019F060E00E94B5000F2D10E08F8584FFE8
:1005B00025C06E0187E0C80ED11CF12CE12CB801DA
:1005C0000E2C02C0759567950A94E2F76170F601EA
:1005D00081916F010E94B500FFEFEF1AFF0A88E0DA
:1005E000E816F10461F7CE01DF91CF911F910F91D1
:1005F000FF90EF90DF90CF900C947D02B80184E0E3
:10060000759567958A95E1F7CE010E9493026F2D4B
:10061000CE01DF91CF911F910F91FF90EF90DF906E
:10062000CF900C94930240E0682F83ED91E00C94FE
:10063000C002CF93DF93813029F09091E20198605E
:100640009093E2018093E6011092E70180E48093A9
:10065000E80180E18093E90180E58093EA0161E0AF
:100660008091D7010E94E3008091D8018F3F19F05B
:1006700061E00E94E30061E08091D9010E94E30003
:10068000C3EDD1E09E01235D31408091E20184FD04
:100690000BC084E090E021962817390744F461E00C
:1006A0008E810E94E300EECF88E090E0F4CF8BE3F0
:1006B0009DE00197F1F760E08091D7010E94B500BD
:1006C00060E08091D9010E94B5008091D8018F3FF0
:1006D00019F060E00E94B5008091E20184FD39C00C
:1006E00063E083ED91E00E949302CBE4D6E4CE0177
:1006F0000197F1F763E083ED91E00E949302219767
:10070000F1F763E083ED91E00E94930283E592E0CC
:100710000197F1F762E083ED91E00E9493028091EE
:10072000E20180620E94130384E08093E3018CE085
:100730000E94130381E00E9413038BE39FE1019762
:10074000F1F782E08093E40186E0DF91CF910C9491
:10075000130380620E9413038BE496E40197F1F780
:100760008091E20180620E94130383E592E0019789
:10077000F1F78091E20180620E941303D0CFCF9302
:10078000DF93E091E601E33040F5E150F0E0ED5217
:10079000FE4F848980680E941303E0EBF0E08491AF
:1007A000ECE9F0E0D491E8E8F0E0C491CC23B9F0B2
:1007B00081110E948C00EC2FF0E0EE0FFF1FE85932
:1007C000FF4FA591B491EC91ED2349F010922C01CB
:1007D00010922B01DF91CF910895E2E0D7CF81E015
:1007E00090E090932C0180932B01F4CF41E00E9484
:1007F000C00281E090E008951F920F920FB60F9211
:1008000011242F933F938F939F93AF93BF93809126
:100810002E0190912F01A0913001B09131013091C2
:100820002D0123E0230F2D3758F50196A11DB11D91
:1008300020932D0180932E0190932F01A0933001DE
:10084000B09331018091320190913301A091340134
:10085000B09135010196A11DB11D80933201909395
:100860003301A0933401B0933501BF91AF919F91B3
:100870008F913F912F910F900FBE0F901F90189561
:1008800026E8230F0296A11DB11DD2CF1F920F9211
:100890000FB60F9211242F933F934F935F936F9353
:1008A0007F938F939F93AF93BF93EF93FF93E091C9
:1008B0000201F09103010995FF91EF91BF91AF9172
:1008C0009F918F917F916F915F914F913F912F9168
:1008D0000F900FBE0F901F9018951F920F920FB69A
:1008E0000F9211242F933F934F935F936F937F93B6
:1008F0008F939F93AF93BF93EF93FF93E09100018A
:10090000F09101010995FF91EF91BF91AF919F91F6
:100910008F917F916F915F914F913F912F910F90A8
:100920000FBE0F901F9018951F920F920FB60F9247
:1009300011242F933F934F935F936F937F938F93E4
:100940009F93AF93BF93EF93FF9386E391E00E9451
:10095000EA01FF91EF91BF91AF919F918F917F91AC
:100960006F915F914F913F912F910F900FBE0F901C
:100970001F9018951F920F920FB60F9211242F936C
:100980008F939F93EF93FF93E0914601F09147017E
:100990008081E0914C01F0914D0182FD1BC090815E
:1009A00080914F018F5F8F7320915001821741F02A
:1009B000E0914F01F0E0EA5CFE4F958F80934F018C
:1009C000FF91EF919F918F912F910F900FBE0F90FC
:1009D0001F9018958081F4CFE6E3F1E01382128234
:1009E00088EE93E0A0E0B0E084839583A683B7838C
:1009F00088E091E09183808385EC90E095878487FF
:100A000084EC90E09787868780EC90E0918B808BD8
:100A100081EC90E0938B828B82EC90E0958B848BC1
:100A200086EC90E0978B868B118E128E138E148E2F
:100A3000E3EDF1E0138212828AE191E091838083F9
:100A400089E084838FEF858388E0868384E08783D1
:100A500085E0808786E0818787E082871386148619
:100A600015861686178681E00C941903789484B550
:100A7000826084BD84B5816084BD85B5826085BD9A
:100A800085B5816085BD80916E00816080936E0028
:100A9000109281008091810082608093810080911A
:100AA00081008160809381008091800081608093CB
:100AB00080008091B10084608093B1008091B0008B
:100AC00081608093B00080917A00846080937A0086
:100AD00080917A00826080937A0080917A008160B0
:100AE00080937A0080917A00806880937A001092D7
:100AF000C100E0914601F091470182E08083E091DE
:100B00004201F09143011082E0914401F0914501CE
:100B100087E6808310924E01E0914A01F0914B01EB
:100B200086E08083E0914801F091490180818061F5
:100B30008083E0914801F091490180818860808341
:100B4000E0914801F0914901808180688083E091C3
:100B50004801F091490180818F7D808362E082E0CD
:100B60000E94E3008FEB93E09093010180930001DA
:100B7000809169008C7F816080936900E89A61E0D0
:100B800082E10E94E30061E083E10E94E300CFB7CD
:100B9000F89480912A01811127C0E0E9F0E0849166
:100BA000E4EAF0E09491E82FF0E0EE0FFF1FEE583A
:100BB000FF4FA591B491EC91E92321F461E08AE023
:100BC0000E94B50061E08AE00E94E3008CB580617C
:100BD0008CBD8CB580648CBD61E08DE00E94E3002B
:100BE00061E08BE00E94E30080912A018F5F809397
:100BF0002A01CFBF8CB583608CBD8DB58E7F8DBD36
:100C000061E08AE00E94B50061E082E10E94B500E7
:100C100061E083E10E94B50064E670E080E090E06E
:100C20000E94390184E00E94190346E050E062E22C
:100C300071E083ED91E00E946C01C0E0D0E060E0E3
:100C40008AE00E94B50060E082E10E94B50060E0A9
:100C500083E10E94B50080912B018EBD00000DB490
:100C600007FEFDCF8EB564E670E080E090E00E9464
:100C7000390161E08AE00E94B50061E082E10E94F2
:100C8000B50061E083E10E94B50064EF71E080E0AF
:100C900090E00E943901209791F20E94D6018823AA
:100CA00071F20E940000CBCFEE0FFF1F0590F49170
:100CB000E02D0994F894FFCF6B016B010000000058
:100CC0000C026C0199015902CA01A801BC01000083
:100CD0000000F6036C017A0279024D4553545245E7
:020CE000000012
:107E0000112484B714BE81FFF0D085E080938100F7
:107E100082E08093C00088E18093C10086E0809377
:107E2000C20080E18093C4008EE0C9D0259A86E02C
:107E300020E33CEF91E0309385002093840096BBD3
:107E4000B09BFECF1D9AA8958150A9F7CC24DD24C4
:107E500088248394B5E0AB2EA1E19A2EF3E0BF2EE7
:107E6000A2D0813461F49FD0082FAFD0023811F036
:107E7000013811F484E001C083E08DD089C08234E0
:107E800011F484E103C0853419F485E0A6D080C0E4
:107E9000853579F488D0E82EFF2485D0082F10E0AE
:107EA000102F00270E291F29000F111F8ED06801E7
:107EB0006FC0863521F484E090D080E0DECF843638
:107EC00009F040C070D06FD0082F6DD080E0C81688
:107ED00080E7D80618F4F601B7BEE895C0E0D1E017
:107EE00062D089930C17E1F7F0E0CF16F0E7DF06D8
:107EF00018F0F601B7BEE89568D007B600FCFDCFD4
:107F0000A601A0E0B1E02C9130E011968C91119780
:107F100090E0982F8827822B932B1296FA010C0160
:107F200087BEE89511244E5F5F4FF1E0A038BF0790
:107F300051F7F601A7BEE89507B600FCFDCF97BE46
:107F4000E89526C08437B1F42ED02DD0F82E2BD052
:107F50003CD0F601EF2C8F010F5F1F4F84911BD097
:107F6000EA94F801C1F70894C11CD11CFA94CF0C13
:107F7000D11C0EC0853739F428D08EE10CD085E9AC
:107F80000AD08FE07ACF813511F488E018D01DD067
:107F900080E101D065CF982F8091C00085FFFCCF94
:107FA0009093C60008958091C00087FFFCCF809118
:107FB000C00084FD01C0A8958091C6000895E0E648
:107FC000F0E098E1908380830895EDDF803219F02E
:107FD00088E0F5DFFFCF84E1DECF1F93182FE3DFCA
:107FE0001150E9F7F2DF1F91089580E0E8DFEE27F6
:047FF000FF270994CA
:027FFE00040479
:00000001FF
