:100000000C9462000C9421040C94FA030C948A0062
:100010000C948A000C948A000C948A000C948A0038
:100020000C948A000C948A000C948A000C948A0028
:100030000C948A000C948A000C948A000C948A0018
:100040000C94B0030C948A000C946E040C94480435
:100050000C948A000C948A000C948A000C948A00F8
:100060000C948A000C948A000000000023002600F3
:10007000290000000000240027002A0000000000E2
:10008000250028002B0004040404040404040202D4
:100090000202020203030303030301020408102007
:1000A0004080010204081020010204081020000012
:1000B0000008000201000003040700000000000027
:1000C0000000A00411241FBECFEFD8E0DEBFCDBFDB
:1000D00011E0A0E0B1E0EEE4FBE002C005900D927B
:1000E000AA32B107D9F721E0AAE2B1E001C01D921E
:1000F000A83EB207E1F710E0C2E6D0E004C02197C5
:10010000FE010E949F05C136D107C9F70E94EA048B
:100110000C94A5050C940000833081F028F4813004
:1001200099F08230A9F008958730A9F08830C9F09D
:100130008430B1F4809180008F7D03C08091800075
:100140008F7780938000089584B58F7784BD08955C
:1001500084B58F7DFBCF8091B0008F778093B00006
:1001600008958091B0008F7DF9CF1F93CF93DF93D7
:10017000282F30E0F901E255FF4F8491F901E6564E
:10018000FF4FD491F901EA57FF4FC491CC23A9F056
:10019000162F81110E948C00EC2FF0E0EE0FFF1F54
:1001A000E458FF4FA591B4918FB7F894EC911111D9
:1001B00008C0D095DE23DC938FBFDF91CF911F91D4
:1001C0000895DE2BF8CFCF93DF9390E0FC01E65645
:1001D000FF4F24918A579F4FFC0184918823D1F0CF
:1001E00090E0880F991FFC01EE58FF4FA591B49144
:1001F000FC01E458FF4FC591D491623071F49FB770
:10020000F8943C91822F809583238C93E8812E2B48
:1002100028839FBFDF91CF9108958FB7F894EC9119
:100220002E2B2C938FBFF6CF0895AF92BF92CF9213
:10023000DF92EF92FF920F931F93CF93DF936C01A6
:100240007B018B01040F151FEB015E01AE18BF0887
:10025000C017D10759F06991D601ED91FC91019039
:10026000F081E02DC6010995892B79F7C501DF9151
:10027000CF911F910F91FF90EF90DF90CF90BF90A3
:10028000AF900895FC01538D448D252F30E0842FCD
:1002900090E0821B930B541710F0CF9608950197AE
:1002A0000895FC01918D828D981761F0A28DAE0F9B
:1002B000BF2FB11D5D968C91928D9F5F9F73928F22
:1002C00090E008958FEF9FEF0895FC01918D828D4E
:1002D000981731F0828DE80FF11D858D90E008951B
:1002E0008FEF9FEF0895FC01918D228D892F90E073
:1002F000805C9F4F821B91098F739927089583E338
:1003000091E00E94730121E0892B09F420E0822F03
:10031000089580E090E0892B29F00E947F018111EF
:100320000C9400000895FC01A48DA80FB92FB11DF5
:10033000A35ABF4F2C91848D90E001968F7399271B
:10034000848FA689B7892C93A089B1898C918370F9
:1003500080648C93938D848D981306C00288F389F2
:10036000E02D80818F7D80830895EF92FF920F931F
:100370001F93CF93DF93EC0181E0888F9B8D8C8D51
:1003800098131AC0E889F989808185FF15C09FB745
:10039000F894EE89FF896083E889F9898081837008
:1003A000806480839FBF81E090E0DF91CF911F91B7
:1003B0000F91FF90EF900895F62E0B8D10E00F5FD8
:1003C0001F4F0F731127E02E8C8D8E110CC00FB6AE
:1003D00007FCFACFE889F989808185FFF5CFCE0146
:1003E0000E949301F1CFEB8DEC0FFD2FF11DE35A2D
:1003F000FF4FF0829FB7F8940B8FEA89FB898081C9
:100400008062CFCFCF93DF93EC01888D8823B9F042
:10041000AA89BB89E889F9898C9185FD03C080810F
:1004200086FD0DC00FB607FCF7CF8C9185FFF2CF8C
:10043000808185FFEDCFCE010E949301E9CFDF914E
:10044000CF910895089590E080E00895CF93DF93D1
:10045000EC0160E08E810E94B50061E08E810E9417
:10046000B50060E08E810E94B5008BE891E00197B5
:10047000F1F7DF91CF910895CF92DF92EF92FF9243
:100480000F931F93CF93DF936C017C0187E0E80EFD
:10049000F11CD0E0C0E0062F10E0B8010C2E02C025
:1004A000759567950A94E2F76170F70181917F0174
:1004B0000E94B5002196C430D10579F7C601DF91BD
:1004C000CF911F910F91FF90EF90DF90CF900C9400
:1004D0002602CF92DF92EF92FF920F931F93CF935A
:1004E000DF93EC01F62E642F8C810E94B5008D8184
:1004F0008F3F19F060E00E94B5000F2D10E08F854E
:1005000084FF25C06E0187E0C80ED11CF12CE12CC0
:10051000B8010E2C02C0759567950A94E2F76170D8
:10052000F60181916F010E94B500FFEFEF1AFF0AFB
:1005300088E0E816F10461F7CE01DF91CF911F91B9
:100540000F91FF90EF90DF90CF900C942602B801AE
:1005500084E0759567958A95E1F7CE010E943C028B
:100560006F2DCE01DF91CF911F910F91FF90EF90F2
:10057000DF90CF900C943C0240E0682F80ED91E03A
:100580000C946902CF93DF93813029F09091DF01C1
:1005900098609093DF018093E3011092E40180E47E
:1005A0008093E50180E18093E60180E58093E70197
:1005B00061E08091D4010E94E3008091D5018F3FDA
:1005C00019F061E00E94E30061E08091D6010E9491
:1005D000E300C0EDD1E09E01205D31408091DF015C
:1005E00084FD0BC084E090E021962817390744F47D
:1005F00061E08E810E94E300EECF88E090E0F4CFCE
:100600008BE39DE00197F1F760E08091D4010E94B7
:10061000B50060E08091D6010E94B5008091D501BF
:100620008F3F19F060E00E94B5008091DF0184FDEA
:1006300039C063E080ED91E00E943C02CBE4D6E457
:10064000CE010197F1F763E080ED91E00E943C025A
:100650002197F1F763E080ED91E00E943C0283E591
:1006600092E00197F1F762E080ED91E00E943C0298
:100670008091DF0180620E94BC0284E08093E001EF
:100680008CE00E94BC0281E00E94BC028BE39FE1EF
:100690000197F1F782E08093E10186E0DF91CF914D
:1006A0000C94BC0280620E94BC028BE496E4019729
:1006B000F1F78091DF0180620E94BC0283E592E045
:1006C0000197F1F78091DF0180620E94BC02D0CFD8
:1006D000CF93DF93E091E301E33058F5E150F0E090
:1006E000E053FE4F848980680E94BC02E0EBF0E09A
:1006F0008491ECE9F0E0D491E8E8F0E0C491CC23F7
:10070000D1F081110E948C00EC2FF0E0EE0FFF1F62
:10071000E859FF4FA591B491EC91ED2361F060E0B1
:100720008AE00E94B5008DEC8EBD0DB407FEFDCFB2
:100730000BC0E2E0D4CF60E08AE00E94B5008BEA13
:100740008EBD0DB407FEFDCF61E08AE0DF91CF9151
:100750000C94B50041E00E94690281E090E00895A8
:100760001F920F920FB60F9211242F933F938F93E6
:100770009F93AF93BF9380912F0190913001A091EF
:100780003101B091320130912E0123E0230F2D373A
:1007900058F50196A11DB11D20932E0180932F01C4
:1007A00090933001A0933101B093320180912A01DE
:1007B00090912B01A0912C01B0912D010196A11DCA
:1007C000B11D80932A0190932B01A0932C01B0932B
:1007D0002D01BF91AF919F918F913F912F910F90DC
:1007E0000FBE0F901F90189526E8230F0296A11DAB
:1007F000B11DD2CF1F920F920FB60F9211242F93DB
:100800003F934F935F936F937F938F939F93AF9398
:10081000BF93EF93FF93E0910201F09103010995DB
:10082000FF91EF91BF91AF919F918F917F916F91C8
:100830005F914F913F912F910F900FBE0F901F909E
:1008400018951F920F920FB60F9211242F933F937A
:100850004F935F936F937F938F939F93AF93BF93C8
:10086000EF93FF93E0910001F09101010995FF9151
:10087000EF91BF91AF919F918F917F916F915F9118
:100880004F913F912F910F900FBE0F901F90189591
:100890001F920F920FB60F9211242F933F934F93F5
:1008A0005F936F937F938F939F93AF93BF93EF93D8
:1008B000FF9383E391E00E949301FF91EF91BF9139
:1008C000AF919F918F917F916F915F914F913F91E8
:1008D0002F910F900FBE0F901F9018951F920F929F
:1008E0000FB60F9211242F938F939F93EF93FF9343
:1008F000E0914301F09144018081E0914901F09140
:100900004A0182FD1BC0908180914C018F5F8F73E3
:1009100020914D01821741F0E0914C01F0E0ED5C37
:10092000FE4F958F80934C01FF91EF919F918F9196
:100930002F910F900FBE0F901F9018958081F4CFCC
:10094000E3E3F1E01382128288EE93E0A0E0B0E0EE
:1009500084839583A683B78388E091E09183808325
:1009600085EC90E09587848784EC90E09787868774
:1009700080EC90E0918B808B81EC90E0938B828B6C
:1009800082EC90E0958B848B86EC90E0978B868B45
:10099000118E128E138E148EE0EDF1E0138212820E
:1009A0008AE191E09183808389E084838FEF85835E
:1009B00088E0868384E0878385E0808786E081877E
:1009C00087E082871386148615861686178681E04F
:1009D0000C94C202789484B5826084BD84B5816031
:1009E00084BD85B5826085BD85B5816085BD8091FA
:1009F0006E00816080936E00109281008091810072
:100A00008260809381008091810081608093810069
:100A1000809180008160809380008091B10084602B
:100A20008093B1008091B00081608093B00080918C
:100A30007A00846080937A0080917A00826080934B
:100A40007A0080917A00816080937A0080917A00A8
:100A5000806880937A001092C100E0914301F09188
:100A6000440182E08083E0913F01F09140011082D7
:100A7000E0914101F091420187E6808310924B01A1
:100A8000E0914701F091480186E08083E0914501C3
:100A9000F0914601808180618083E0914501F09171
:100AA0004601808188608083E0914501F091460194
:100AB000808180688083E0914501F09146018081CA
:100AC0008F7D808362E082E00E94E30088E693E00D
:100AD0009093010180930001809169008C7F816077
:100AE00080936900E89A84E00E94C20246E050E0E8
:100AF00062E271E080ED91E00E94150161E08BE01F
:100B00000E94E30061E08DE00E94E30061E08AE082
:100B10000E94E30081E58CBD61E08AE00E94E30071
:100B200061E08AE00E94B500C0E0D0E02097F1F3D8
:100B30000E947F018823D1F30E940000F7CFEE0FBF
:0E0B4000FF1F0590F491E02D0994F894FFCF6B
:100B4E001401140100000000B5011501420102025A
:100B5E0073015101650100000000AA031501230273
:0A0B6E0022024D4553545245000089
:00000001FF
