:100000000C9462000C9444050C941D050C948A0019
:100010000C948A000C948A000C948A000C948A0038
:100020000C948A000C948A000C948A000C948A0028
:100030000C948A000C94C3050C948A000C948A00DA
:100040000C94D3040C948A000C9491050C946B05C9
:100050000C948A000C948A000C948A000C948A00F8
:100060000C948A000C948A000000000023002600F3
:10007000290000000000240027002A0000000000E2
:10008000250028002B0004040404040404040202D4
:100090000202020203030303030301020408102007
:1000A0004080010204081020010204081020000012
:1000B0000008000201000003040700000000000027
:1000C0000000EA0511241FBECFEFD8E0DEBFCDBF90
:1000D00011E0A0E0B1E0E8E5F3E102C005900D9287
:1000E000A833B107D9F722E0A8E3B1E001C01D921F
:1000F000A233B207E1F710E0C2E6D0E004C02197D6
:10010000FE010E94A409C136D107C9F70E94340636
:100110000C94AA090C940000833081F028F48130FB
:1001200099F08230A9F008958730A9F08830C9F09D
:100130008430B1F4809180008F7D03C08091800075
:100140008F7780938000089584B58F7784BD08955C
:1001500084B58F7DFBCF8091B0008F778093B00006
:1001600008958091B0008F7DF9CF1F93CF93DF93D7
:10017000282F30E0F901E255FF4F8491F901E6564E
:10018000FF4FD491F901EA57FF4FC491CC23A9F056
:10019000162F81110E948C00EC2FF0E0EE0FFF1F54
:1001A000E458FF4FA591B4918FB7F894EC911111D9
:1001B00008C0D095DE23DC938FBFDF91CF911F91D4
:1001C0000895DE2BF8CFCF93DF9390E0FC01E65645
:1001D000FF4F24918A579F4FFC0184918823D1F0CF
:1001E00090E0880F991FFC01EE58FF4FA591B49144
:1001F000FC01E458FF4FC591D491623071F49FB770
:10020000F8943C91822F809583238C93E8812E2B48
:1002100028839FBFDF91CF9108958FB7F894EC9119
:100220002E2B2C938FBFF6CF3FB7F8948091790196
:1002300090917A01A0917B01B0917C0126B5A89B99
:1002400005C02F3F19F00196A11DB11D3FBFBA2F68
:10025000A92F982F8827BC01CD01620F711D811D28
:10026000911D42E0660F771F881F991F4A95D1F7AD
:1002700008958F929F92AF92BF92CF92DF92EF92AA
:10028000FF924B015C010E9414016B017C010E94F2
:1002900014016C197D098E099F09683E7340810520
:1002A0009105A8F321E0821A9108A108B10888EE0F
:1002B000C80E83E0D81EE11CF11C81149104A10436
:1002C000B10429F7FF90EF90DF90CF90BF90AF90EF
:1002D0009F908F9008950895AF92BF92CF92DF9232
:1002E000EF92FF920F931F93CF93DF936C017B01EB
:1002F0008B01040F151FEB015E01AE18BF08C0177C
:10030000D10759F06991D601ED91FC910190F081EE
:10031000E02DC6010995892B79F7C501DF91CF91B1
:100320001F910F91FF90EF90DF90CF90BF90AF9013
:100330000895FC01538D448D252F30E0842F90E0EB
:10034000821B930B541710F0CF96089501970895D0
:10035000FC01918D828D981761F0A28DAE0FBF2F99
:10036000B11D5D968C91928D9F5F9F73928F90E0EF
:1003700008958FEF9FEF0895FC01918D828D98175E
:1003800031F0828DE80FF11D858D90E008958FEF9B
:100390009FEF0895FC01918D228D892F90E0805C64
:1003A0009F4F821B91098F73992708958DE791E0E4
:1003B0000E94CA0121E0892B09F420E0822F0895D0
:1003C00080E090E0892B29F00E94D60181110C94E5
:1003D00000000895FC01A48DA80FB92FB11DA35AE8
:1003E000BF4F2C91848D90E001968F739927848F55
:1003F000A689B7892C93A089B1898C918370806478
:100400008C93938D848D981306C00288F389E02D18
:1004100080818F7D80830895EF92FF920F931F93C9
:10042000CF93DF93EC0181E0888F9B8D8C8D9813A7
:100430001AC0E889F989808185FF15C09FB7F894B3
:10044000EE89FF896083E889F989808183708064FF
:1004500080839FBF81E090E0DF91CF911F910F914A
:10046000FF90EF900895F62E0B8D10E00F5F1F4F59
:100470000F731127E02E8C8D8E110CC00FB607FC68
:10048000FACFE889F989808185FFF5CFCE010E94F6
:10049000EA01F1CFEB8DEC0FFD2FF11DE35AFF4F79
:1004A000F0829FB7F8940B8FEA89FB898081806284
:1004B000CFCFCF93DF93EC01888D8823B9F0AA8941
:1004C000BB89E889F9898C9185FD03C0808186FD0F
:1004D0000DC00FB607FCF7CF8C9185FFF2CF80815E
:1004E00085FFEDCFCE010E94EA01E9CFDF91CF91E8
:1004F00008950895089590E080E008958FEF8EBDEF
:100500000DB407FEFDCF8EB50895CF93DF93E0EBDA
:10051000F0E08491ECE9F0E0D491E8E8F0E0C491F7
:10052000CC23C1F081110E948C00EC2FF0E0EE0F83
:10053000FF1FE859FF4FA591B491EC91ED2351F0C5
:1005400060E08AE00E94B5008DEC8EBD0DB407FE20
:10055000FDCF09C060E08AE00E94B5008BEA8EBD45
:100560000DB407FEFDCF61E08AE0DF91CF910C94DE
:10057000B50060E08AE00E94B50080E28EBD0DB457
:1005800007FEFDCF62E070E080E090E00E9439015C
:100590000E947E02682F70E090E080E00E9459087F
:1005A0006093600170936101809362019093630195
:1005B00062E070E080E090E00E9439010E947E02DB
:1005C000682F70E090E080E00E9459086093640119
:1005D00070936501809366019093670162E070E01B
:1005E00080E090E00E9439010E947E02682F70E056
:1005F00090E080E00E94590860936801709369015F
:1006000080936A0190936B0162E070E080E090E07B
:100610000E9439010E947E02682F70E090E080E025
:100620000E94590860936C0170936D0180936E0174
:1006300090936F0162E070E080E090E00E943901E9
:100640000E947E02682F70E090E080E00E945908CE
:1006500060937001709371018093720190937301A4
:1006600062E070E080E090E00E94390161E08AE0A1
:100670000C94B500FC0101900020E9F73197AF011F
:10068000481B590BBC018AE192E00C946C018F92DB
:100690009F92AF92BF920F931F93CF93DF93CDB7EB
:1006A000DEB7A1970FB6F894DEBF0FBECDBF19A27B
:1006B000423008F44AE08E010F5D1F4F842E912CCA
:1006C000B12CA12CA50194010E948209E62FB90149
:1006D000CA01EA30F4F4E05DD801EE938D01232BDA
:1006E000242B252B79F790E080E0109719F0CD01AD
:1006F0000E943A03A1960FB6F894DEBF0FBECDBF9D
:10070000DF91CF911F910F91BF90AF909F908F90ED
:100710000895E95CE1CFCF93DF93EC0160E08E8137
:100720000E94B50061E08E810E94B50060E08E817C
:100730000E94B5008BE891E00197F1F7DF91CF912E
:100740000895CF92DF92EF92FF920F931F93CF9372
:10075000DF936C017C0187E0E80EF11CD0E0C0E083
:10076000062F10E0B8010C2E02C0759567950A940B
:10077000E2F76170F70181917F010E94B500219637
:10078000C430D10579F7C601DF91CF911F910F9148
:10079000FF90EF90DF90CF900C948B03CF92DF927D
:1007A000EF92FF920F931F93CF93DF93EC01F62EFE
:1007B000642F8C810E94B5008D818F3F19F060E01D
:1007C0000E94B5000F2D10E08F8584FF25C06E01BB
:1007D00087E0C80ED11CF12CE12CB8010E2C02C010
:1007E000759567950A94E2F76170F60181916F0142
:1007F0000E94B500FFEFEF1AFF0A88E0E816F10447
:1008000061F7CE01DF91CF911F910F91FF90EF9093
:10081000DF90CF900C948B03B80184E075956795B9
:100820008A95E1F7CE010E94A1036F2DCE01DF91E1
:10083000CF911F910F91FF90EF90DF90CF900C948C
:10084000A10340E0682F8AE192E00C94CE03CF939D
:10085000DF93813029F090912902986090932902CA
:1008600080932D0210922E0280E480932F0280E16B
:100870008093300280E58093310261E080911E0216
:100880000E94E30080911F028F3F19F061E00E94F7
:10089000E30061E0809120020E94E300CAE1D2E01F
:1008A0009E012A5132408091290284FD0BC084E0D0
:1008B00090E021962817390744F461E08E810E9468
:1008C000E300EECF88E090E0F4CF8BE39DE001976A
:1008D000F1F760E080911E020E94B50060E0809117
:1008E00020020E94B50080911F028F3F19F060E046
:1008F0000E94B5008091290284FD39C063E08AE13D
:1009000092E00E94A103CBE4D6E4CE010197F1F777
:1009100063E08AE192E00E94A1032197F1F763E08E
:100920008AE192E00E94A10383E592E00197F1F74A
:1009300062E08AE192E00E94A10380912902806234
:100940000E94210484E080932A028CE00E9421040A
:1009500081E00E9421048BE39FE10197F1F782E09F
:1009600080932B0286E0DF91CF910C94210480626A
:100970000E9421048BE496E40197F1F7809129020B
:1009800080620E94210483E592E00197F1F7809153
:10099000290280620E942104D0CF41E00E94CE0350
:1009A00081E090E008951F920F920FB60F921124EC
:1009B0002F933F938F939F93AF93BF938091750134
:1009C00090917601A0917701B091780130917401F6
:1009D00023E0230F2D3758F50196A11DB11D20935B
:1009E00074018093750190937601A0937701B09381
:1009F00078018091790190917A01A0917B01B09169
:100A00007C010196A11DB11D8093790190937A011B
:100A1000A0937B01B0937C01BF91AF919F918F9187
:100A20003F912F910F900FBE0F901F90189526E8C1
:100A3000230F0296A11DB11DD2CF1F920F920FB6A8
:100A40000F9211242F933F934F935F936F937F9354
:100A50008F939F93AF93BF93EF93FF93E091020126
:100A6000F09103010995FF91EF91BF91AF919F9193
:100A70008F917F916F915F914F913F912F910F9047
:100A80000FBE0F901F9018951F920F920FB60F92E6
:100A900011242F933F934F935F936F937F938F9383
:100AA0009F93AF93BF93EF93FF93E0910001F09179
:100AB00001010995FF91EF91BF91AF919F918F91A6
:100AC0007F916F915F914F913F912F910F900FBE4A
:100AD0000F901F9018951F920F920FB60F9211242E
:100AE0002F933F934F935F936F937F938F939F9336
:100AF000AF93BF93EF93FF938DE791E00E94EA01DC
:100B0000FF91EF91BF91AF919F918F917F916F91E5
:100B10005F914F913F912F910F900FBE0F901F90BB
:100B200018951F920F920FB60F9211242F938F9347
:100B30009F93EF93FF93E0918D01F0918E0180815F
:100B4000E0919301F091940182FD1BC0908180910E
:100B500096018F5F8F7320919701821741F0E0918A
:100B60009601F0E0E358FE4F958F80939601FF9138
:100B7000EF919F918F912F910F900FBE0F901F902B
:100B800018958081F4CF1F920F920FB60F92112407
:100B90002F933F934F935F936F937F938F939F9385
:100BA000AF93BF93EF93FF93E0910401F0910501A0
:100BB0000995FF91EF91BF91AF919F918F917F9197
:100BC0006F915F914F913F912F910F900FBE0F90BA
:100BD0001F901895EDE7F1E01382128288EE93E002
:100BE000A0E0B0E084839583A683B7838AE091E098
:100BF0009183808385EC90E09587848784EC90E0F6
:100C00009787868780EC90E0918B808B81EC90E0D9
:100C1000938B828B82EC90E0958B848B86EC90E0BA
:100C2000978B868B118E128E138E148EEAE1F2E072
:100C3000138212828CE191E09183808389E0848326
:100C40008FEF858388E0868384E0878385E08087D3
:100C500086E0818787E0828713861486158616864C
:100C6000178681E00C942704789484B5826084BD53
:100C700084B5816084BD85B5826085BD85B58160A0
:100C800085BD80916E00816080936E00109281001E
:100C900080918100826080938100809181008160D9
:100CA000809381008091800081608093800080919A
:100CB000B10084608093B1008091B0008160809326
:100CC000B00080917A00846080937A0080917A00ED
:100CD000826080937A0080917A00816080937A00AC
:100CE00080917A00806880937A001092C100E09130
:100CF0008D01F0918E0182E08083E0918901F09175
:100D00008A011082E0918B01F0918C0187E680834B
:100D100010929501E0919101F091920186E080831B
:100D2000E0918F01F0919001808180618083E0915A
:100D30008F01F0919001808188608083E0918F0124
:100D4000F0919001808180688083E0918F01F09123
:100D5000900180818F7D808362E082E00E94E300C9
:100D600085E892E0909301018093000180916900F1
:100D70008C7F816080936900E89A84E00E94270458
:100D800084E291E00E943A0361E08BE00E94E3007C
:100D900061E08DE00E94E30061E08AE00E94E300F0
:100DA00081E58CBD61E08AE00E94E30061E08AE0B9
:100DB0000E94B50080E1809381001092800082E162
:100DC0009AE7909387008093860084E18093810066
:100DD00089EB92E0909305018093040181E0809378
:100DE0006F00C0E0D0E0E0912D02E23058F5E15014
:100DF000F0E0E65EFD4F848980680E942104C09087
:100E00006401D0906501E0906601F0906701A70150
:100E10009601C701B6010E947D098823A9F08BE2E3
:100E200091E00E943A0368EE73E080E090E00E9457
:100E300039012097C1F20E94D6018823A1F20E94B5
:100E40000000D1CFE1E0D4CF46015701E894B7F8D4
:100E50002FEF3FEF4FE75FE7C501B4010E947D0927
:100E600081110DC02FEF3FEF4FE75FE7C501B401E0
:100E70000E94250818161CF48FE291E0D2CF2FEFC4
:100E80003FEF4FE75FE4C701B6010E940B09181658
:100E90001CF483E391E0C5CF2FEF3FEF4FE75FEC0A
:100EA000C701B6010E94250887FDF3CF20E030E09E
:100EB000A901C701B6010E94250887FF0AC041E0C9
:100EC0006DE28AE192E00E94CE03F7FAF094F7F81F
:100ED000F0942AE037ED43EA5BE3C701B6010E94D4
:100EE000B9074B015C010E942A086B017C010E943A
:100EF00059089B01AC01C501B4010E94B8074B0120
:100F00005C014AE0C701B6010E94470341E06EE27E
:100F10008AE192E00E94CE0320E030E040E251E41A
:100F2000C501B4010E9410094B015C010E942A080E
:100F30006B01F12CE12C4AE0C701B6010E94470386
:100F4000C701B6010E9459089B01AC01C501B4015B
:100F50000E94B80720E030E040E251E40E9410090E
:100F60000E942A0890E080E04AE00E9447035BCF9D
:100F70005058BB27AA270E94D0070C94D1080E9482
:100F8000C30838F00E94CA0820F039F49F3F19F4D2
:100F900026F40C94C0080EF4E095E7FB0C94BA0814
:100FA000E92F0E94E20858F3BA1762077307840713
:100FB000950720F079F4A6F50C9404090EF4E09559
:100FC0000B2EBA2FA02D0B01B90190010C01CA0103
:100FD000A0011124FF27591B99F0593F50F4503EAE
:100FE00068F11A16F040A22F232F342F4427585FA0
:100FF000F3CF469537952795A795F0405395C9F7B8
:101000007EF41F16BA0B620B730B840BBAF091506F
:10101000A1F0FF0FBB1F661F771F881FC2F70EC00E
:10102000BA0F621F731F841F48F4879577956795E1
:10103000B795F7959E3F08F0B0CF9395880F08F0CD
:101040009927EE0F9795879508950E94960808F4C2
:1010500081E008950E94EA0888F09F5798F0B92F20
:101060009927B751B0F0E1F0660F771F881F991FDD
:101070001AF0BA95C9F714C0B13091F00E94040972
:10108000B1E008950C940409672F782F8827B85F82
:1010900039F0B93FCCF3869577956795B395D9F735
:1010A0003EF490958095709561957F4F8F4F9F4F3F
:1010B0000895E89409C097FB3EF49095809570954B
:1010C00061957F4F8F4F9F4F9923A9F0F92F96E994
:1010D000BB279395F695879577956795B795F11109
:1010E000F8CFFAF4BB0F11F460FF1BC06F5F7F4FA6
:1010F0008F4F9F4F16C0882311F096E911C07723B8
:1011000021F09EE8872F762F05C0662371F096E8C0
:10111000862F70E060E02AF09A95660F771F881F8F
:10112000DAF7880F9695879597F90895990F000833
:10113000550FAA0BE0E8FEEF16161706E807F907A9
:10114000C0F012161306E407F50798F0621B730B44
:10115000840B950B39F40A2661F0232B242B252BC5
:1011600021F408950A2609F4A140A6958FEF811D68
:10117000811D089597F99F6780E870E060E0089509
:101180009FEF80EC089500240A941616170618069F
:101190000906089500240A9412161306140605067B
:1011A0000895092E0394000C11F4882352F0BB0F0C
:1011B00040F4BF2B11F460FF04C06F5F7F4F8F4F6F
:1011C0009F4F089557FD9058440F551F59F05F3FAA
:1011D00071F04795880F97FB991F61F09F3F79F059
:1011E00087950895121613061406551FF2CF4695DB
:1011F000F1DF08C0161617061806991FF1CF86955D
:101200007105610508940895E894BB276627772740
:10121000CB0197F908950E94960808F48FEF08957E
:101220000E9423090C94D1080E94C30838F00E9440
:10123000CA0820F0952311F00C94BA080C94C00849
:1012400011240C9405090E94E20870F3959FC1F3E4
:10125000950F50E0551F629FF001729FBB27F00D64
:10126000B11D639FAA27F00DB11DAA1F649F6627B9
:10127000B00DA11D661F829F2227B00DA11D621F08
:10128000739FB00DA11D621F839FA00D611D221FC2
:10129000749F3327A00D611D231F849F600D211DA6
:1012A000822F762F6A2F11249F5750409AF0F1F029
:1012B00088234AF0EE0FFF1FBB1F661F771F881F92
:1012C00091505040A9F79E3F510580F00C94BA0808
:1012D0000C9405095F3FE4F3983ED4F38695779527
:1012E0006795B795F795E7959F5FC1F7FE2B880F38
:1012F000911D9695879597F908950E949608880BF9
:10130000990B0895A1E21A2EAA1BBB1BFD010DC06B
:10131000AA1FBB1FEE1FFF1FA217B307E407F507A5
:1013200020F0A21BB30BE40BF50B661F771F881F81
:10133000991F1A9469F760957095809590959B0117
:10134000AC01BD01CF010895EE0FFF1F0590F49190
:08135000E02D0994F894FFCF91
:101358006B016B017902000000000C026C0199011D
:101368005902CA01A801BC0100000000CD046C01AB
:101378007B027A024D4553545245006E616E0069F6
:081388006E66006F766600003E
:00000001FF
