:020000040000FA
:100000000C9462000C94C3070C949C070C948A0017
:100010000C948A000C948A000C948A000C948A0038
:100020000C948A000C948A000C948A000C948A0028
:100030000C948A000C9442080C948A000C948A0058
:100040000C9452070C948A000C9410080C94EA0744
:100050000C948A000C948A000C948A000C948A00F8
:100060000C948A000C948A000000000023002600F3
:10007000290000000000240027002A0000000000E2
:10008000250028002B0004040404040404040202D4
:100090000202020203030303030301020408102007
:1000A0004080010204081020010204081020000012
:1000B0000008000201000003040700000000000027
:1000C0000000690811241FBECFEFD8E0DEBFCDBF0E
:1000D00011E0A0E0B1E0EAE2FEE102C005900D927D
:1000E000A238B107D9F722E0A2E8B1E001C01D9221
:1000F000AE3BB207E1F710E0C2E6D0E004C02197C2
:10010000FE010E940D0FC136D107C9F70E94B40845
:100110000C94130F0C940000833081F028F481308C
:1001200099F08230A9F008958730A9F08830C9F09D
:100130008430B1F4809180008F7D03C08091800075
:100140008F7780938000089584B58F7784BD08955C
:1001500084B58F7DFBCF8091B0008F778093B00006
:1001600008958091B0008F7DF9CF1F93CF93DF93D7
:10017000282F30E0F901E255FF4F8491F901E6564E
:10018000FF4FD491F901EA57FF4FC491CC23A9F056
:10019000162F81110E948C00EC2FF0E0EE0FFF1F54
:1001A000E458FF4FA591B4918FB7F894EC911111D9
:1001B00008C0D095DE23DC938FBFDF91CF911F91D4
:1001C0000895DE2BF8CFCF93DF9390E0FC01E65645
:1001D000FF4F24918A579F4FFC0184918823D1F0CF
:1001E00090E0880F991FFC01EE58FF4FA591B49144
:1001F000FC01E458FF4FC591D491623071F49FB770
:10020000F8943C91822F809583238C93E8812E2B48
:1002100028839FBFDF91CF9108958FB7F894EC9119
:100220002E2B2C938FBFF6CF3FB7F8948091050209
:1002300090910602A0910702B091080226B5A89BF2
:1002400005C02F3F19F00196A11DB11D3FBFBA2F68
:10025000A92F982F8827BC01CD01620F711D811D28
:10026000911D42E0660F771F881F991F4A95D1F7AD
:1002700008958F929F92AF92BF92CF92DF92EF92AA
:10028000FF924B015C010E9414016B017C010E94F2
:1002900014016C197D098E099F09683E7340810520
:1002A0009105A8F321E0821A9108A108B10888EE0F
:1002B000C80E83E0D81EE11CF11C81149104A10436
:1002C000B10429F7FF90EF90DF90CF90BF90AF90EF
:1002D0009F908F9008950895AF92BF92CF92DF9232
:1002E000EF92FF920F931F93CF93DF936C017B01EB
:1002F0008B01040F151FEB015E01AE18BF08C0177C
:10030000D10759F06991D601ED91FC910190F081EE
:10031000E02DC6010995892B79F7C501DF91CF91B1
:100320001F910F91FF90EF90DF90CF90BF90AF9013
:100330000895FC01538D448D252F30E0842F90E0EB
:10034000821B930B541710F0CF96089501970895D0
:10035000FC01918D828D981761F0A28DAE0FBF2F99
:10036000B11D5D968C91928D9F5F9F73928F90E0EF
:1003700008958FEF9FEF0895FC01918D828D98175E
:1003800031F0828DE80FF11D858D90E008958FEF9B
:100390009FEF0895FC01918D228D892F90E0805C64
:1003A0009F4F821B91098F739927089589E092E0EE
:1003B0000E94CA0121E0892B09F420E0822F0895D0
:1003C00080E090E0892B29F00E94D60181110C94E5
:1003D00000000895FC01A48DA80FB92FB11DA35AE8
:1003E000BF4F2C91848D90E001968F739927848F55
:1003F000A689B7892C93A089B1898C918370806478
:100400008C93938D848D981306C00288F389E02D18
:1004100080818F7D80830895EF92FF920F931F93C9
:10042000CF93DF93EC0181E0888F9B8D8C8D9813A7
:100430001AC0E889F989808185FF15C09FB7F894B3
:10044000EE89FF896083E889F989808183708064FF
:1004500080839FBF81E090E0DF91CF911F910F914A
:10046000FF90EF900895F62E0B8D10E00F5F1F4F59
:100470000F731127E02E8C8D8E110CC00FB607FC68
:10048000FACFE889F989808185FFF5CFCE010E94F6
:10049000EA01F1CFEB8DEC0FFD2FF11DE35AFF4F79
:1004A000F0829FB7F8940B8FEA89FB898081806284
:1004B000CFCFCF93DF93EC01888D8823B9F0AA8941
:1004C000BB89E889F9898C9185FD03C0808186FD0F
:1004D0000DC00FB607FCF7CF8C9185FFF2CF80815E
:1004E00085FFEDCFCE010E94EA01E9CFDF91CF91E8
:1004F00008950895089590E080E008958FEF8EBDEF
:100500000DB407FEFDCF6AE070E080E090E00E944D
:1005100039018EB508958EBD0DB407FEFDCF089547
:10052000CF93DF93E0EBF0E08491ECE9F0E0D4913D
:10053000E8E8F0E0C491CC2359F181110E948C00CD
:10054000EC2FF0E0EE0FFF1FE859FF4FA591B4919B
:10055000EC91ED23E9F060E08AE00E94B50060E0F4
:1005600082E10E94B50060E083E10E94B5008DEC5D
:100570000E948B0261E08AE00E94B50061E082E1A6
:100580000E94B50061E083E1DF91CF910C94B5004A
:1005900060E08AE00E94B50060E082E10E94B50060
:1005A00060E083E10E94B5008BEAE2CFCF93DF9356
:1005B00060E08AE00E94B50080E20E948B0262E067
:1005C00070E080E090E00E9439010E947E02C4EE5B
:1005D000D1E0682F70E090E080E00E94C20D688357
:1005E00079838A839B8362E070E080E090E00E94E0
:1005F00039010E947E02682F70E090E080E00E9446
:10060000C20D6C837D838E839F8362E070E080E007
:1006100090E00E9439010E947E02682F70E090E015
:1006200080E00E94C20D688779878A879B8762E095
:1006300070E080E090E00E9439010E947E02682F05
:1006400070E090E080E00E94C20D6C877D878E870D
:100650009F8762E070E080E090E00E9439010E9494
:100660007E02682F70E090E080E00E94C20D688BEF
:10067000798B8A8B9B8B62E070E080E090E00E9437
:1006800039010E947E02682F70E090E080E00E94B5
:10069000C20D6C8B7D8B8E8B9F8B62E070E080E057
:1006A00090E00E9439010E947E02682F70E090E085
:1006B00080E00E94C20D688F798F8A8F9B8F62E0E5
:1006C00070E080E090E00E94390161E08AE00E94E1
:1006D000B50060E082E10E94B50080E20E948B02DA
:1006E00062E070E080E090E00E9439010E947E02AA
:1006F000C4ECD1E0682F70E090E080E00E94C20D71
:10070000688379838A839B8362E070E080E090E075
:100710000E9439010E947E02682F70E090E080E024
:100720000E94C20D6C837D838E839F8362E070E0A4
:1007300080E090E00E9439010E947E02682F70E004
:1007400090E080E00E94C20D688779878A879B8746
:1007500062E070E080E090E00E9439010E947E0239
:10076000682F70E090E080E00E94C20D6C877D876A
:100770008E879F8762E070E080E090E00E94390100
:100780000E947E02682F70E090E080E00E94C20D1F
:10079000688B798B8A8B9B8B62E070E080E090E0C5
:1007A0000E9439010E947E02682F70E090E080E094
:1007B0000E94C20D6C8B7D8B8E8B9F8B62E070E0F4
:1007C00080E090E00E9439010E947E02682F70E074
:1007D00090E080E00E94C20D688F798F8A8F9B8F96
:1007E00062E070E080E090E00E94390161E082E127
:1007F0000E94B50060E083E10E94B50080E20E94A3
:100800008B0262E070E080E090E00E9439010E947B
:100810007E02C4EAD1E0682F70E090E080E00E94A0
:10082000C20D688379838A839B8362E070E080E0F5
:1008300090E00E9439010E947E02682F70E090E0F3
:1008400080E00E94C20D6C837D838E839F8362E073
:1008500070E080E090E00E9439010E947E02682FE3
:1008600070E090E080E00E94C20D688779878A87F7
:100870009B8762E070E080E090E00E9439010E9476
:100880007E02682F70E090E080E00E94C20D6C87CD
:100890007D878E879F8762E070E080E090E00E9415
:1008A00039010E947E02682F70E090E080E00E9493
:1008B000C20D688B798B8A8B9B8B62E070E080E045
:1008C00090E00E9439010E947E02682F70E090E063
:1008D00080E00E94C20D6C8B7D8B8E8B9F8B62E0C3
:1008E00070E080E090E00E9439010E947E02682F53
:1008F00070E090E080E00E94C20D688F798F8A8F4F
:100900009B8F62E070E080E090E00E94390161E03E
:1009100083E1DF91CF910C94B500CF93DF93EC018D
:1009200060E08E810E94B50061E08E810E94B5007A
:1009300060E08E810E94B5008BE891E00197F1F7AD
:10094000DF91CF910895CF92DF92EF92FF920F93B4
:100950001F93CF93DF936C017C0187E0E80EF11CBD
:10096000D0E0C0E0062F10E0B8010C2E02C0759553
:1009700067950A94E2F76170F70181917F010E9407
:10098000B5002196C430D10579F7C601DF91CF912A
:100990001F910F91FF90EF90DF90CF900C948D04FA
:1009A000CF92DF92EF92FF920F931F93CF93DF933B
:1009B000EC01F62E642F8C810E94B5008D818F3F53
:1009C00019F060E00E94B5000F2D10E08F8584FFC4
:1009D00025C06E0187E0C80ED11CF12CE12CB801B6
:1009E0000E2C02C0759567950A94E2F76170F601C6
:1009F00081916F010E94B500FFEFEF1AFF0A88E0B6
:100A0000E816F10461F7CE01DF91CF911F910F91AC
:100A1000FF90EF90DF90CF900C948D04B80184E0AC
:100A2000759567958A95E1F7CE010E94A3046F2D15
:100A3000CE01DF91CF911F910F91FF90EF90DF904A
:100A4000CF900C94A30440E0682F86EA92E00C94C7
:100A5000D004CF93DF93613029F09091B502986074
:100A60009093B5026093B9021092BA0290E4909309
:100A7000BB028093BC02805C8093BD0261E08091E8
:100A8000AA020E94E3008091AB028F3F19F061E05F
:100A90000E94E30061E08091AC020E94E300C6EA9C
:100AA000D2E09E01265A32408091B50284FD0BC0EF
:100AB00084E090E021962817390744F461E08E81A4
:100AC0000E94E300EECF88E090E0F4CF8BE39DE05E
:100AD0000197F1F760E08091AA020E94B50060E002
:100AE0008091AC020E94B5008091AB028F3F19F05B
:100AF00060E00E94B5008091B50284FD39C063E0DA
:100B000086EA92E00E94A304CBE4D6E4CE010197EA
:100B1000F1F763E086EA92E00E94A3042197F1F7DF
:100B200063E086EA92E00E94A30483E592E00197E5
:100B3000F1F762E086EA92E00E94A3048091B50298
:100B400080620E94230584E08093B6028CE00E94BC
:100B5000230581E00E9423058BE39FE10197F1F7D4
:100B600082E08093B70286E0DF91CF910C94230559
:100B700080620E9423058BE496E40197F1F780914F
:100B8000B50280620E94230583E592E00197F1F7A8
:100B90008091B50280620E942305D0CF9091B90266
:100BA000691710F06FEF690FE62FF0E0EA55FD4F7F
:100BB0009489890F80680C94230541E00E94D00439
:100BC00081E090E00895FB0101900020E9F7319762
:100BD000AF01461B570BDC01ED91FC910280F381C4
:100BE000E02D09948F929F92AF92BF920F931F9323
:100BF000CF93DF93CDB7DEB7A1970FB6F894DEBFE2
:100C00000FBECDBF19A2423008F44AE08E010F5D3D
:100C10001F4F842E912CB12CA12CA50194010E9470
:100C2000EB0EE62FB901CA01EA3004F5E05DD80108
:100C3000EE938D01232B242B252B79F790E080E078
:100C4000109729F0BD0186EA92E00E94E305A19683
:100C50000FB6F894DEBF0FBECDBFDF91CF911F91CD
:100C60000F91BF90AF909F908F900895E95CDFCF78
:100C70004F925F926F927F928F929F92AF92BF92AC
:100C8000CF92DF92EF92FF92CF93DF936B017C01C3
:100C9000AC019B010E94E60E64E271E081111AC072
:100CA00046015701E894B7F82FEF3FEF4FE75FE7B2
:100CB000C501B4010E94E60E811128C02FEF3FEF5D
:100CC0004FE75FE7C501B4010E94150D1816F4F453
:100CD00068E271E086EA92E00E94E3057C0160E34D
:100CE00071E086EA92E00E94E3058E0D9F1DDF9180
:100CF000CF91FF90EF90DF90CF90BF90AF909F90FB
:100D00008F907F906F905F904F9008952FEF3FEFFF
:100D10004FE75FE4C701B6010E94740E18161CF479
:100D20006CE271E0D7CF2FEF3FEF4FE75FECC701E9
:100D3000B6010E94150D87FDF3CF20E030E0A90138
:100D4000C701B6010E94150DD0E0C0E087FF0CC0BE
:100D500041E06DE286EA92E00E94D004F7FAF09456
:100D6000F7F8F094C1E0D0E02AE037ED43EA5BE326
:100D7000C701B6010E94A90C4B015C010E94930DB2
:100D80006B017C010E94C20D9B01AC01C501B40145
:100D90000E94A80C4B015C014AE0C701B6010E9409
:100DA000F2057C01EC0EFD1E41E06EE286EA92E067
:100DB0000E94D0048FEFE81AF80A20E030E040E209
:100DC00051E4C501B4010E94790E2B013C010E943F
:100DD000930D4B01B12CA12C4AE0C501B4010E9436
:100DE000F205E80EF91EC501B4010E94C20D9B0177
:100DF000AC01C301B2010E94A80C20E030E040E247
:100E000051E40E94790E0E94930D90E080E04AE048
:100E10000E94F205E80EF91E62CFCF92DF92EF92A8
:100E2000FF926C01990FEE08FF08F7FE1FC041E02A
:100E30006DE286EA92E00E94D00466277727CB0114
:100E40006C197D098E099F094AE00E94F2050196FE
:100E50007C0160E371E086EA92E00E94E3058E0D7A
:100E60009F1DFF90EF90DF90CF9008954AE0C7015B
:100E7000B6010E94F205ECCF0F931F93CF93DF933F
:100E8000EC010E94E3058C0160E371E0CE010E9459
:100E9000E305800F911FDF91CF911F910F9108956E
:100EA0000C94E3051F920F920FB60F9211242F930B
:100EB0003F938F939F93AF93BF9380910102909143
:100EC0000202A0910302B09104023091000223E0DB
:100ED000230F2D3758F50196A11DB11D2093000257
:100EE0008093010290930202A0930302B093040244
:100EF0008091050290910602A0910702B09108022C
:100F00000196A11DB11D8093050290930602A09346
:100F10000702B0930802BF91AF919F918F913F91CB
:100F20002F910F900FBE0F901F90189526E8230F5A
:100F30000296A11DB11DD2CF1F920F920FB60F9234
:100F400011242F933F934F935F936F937F938F93CE
:100F50009F93AF93BF93EF93FF93E0910201F091C2
:100F600003010995FF91EF91BF91AF919F918F91EF
:100F70007F916F915F914F913F912F910F900FBE95
:100F80000F901F9018951F920F920FB60F92112479
:100F90002F933F934F935F936F937F938F939F9381
:100FA000AF93BF93EF93FF93E0910001F0910101A4
:100FB0000995FF91EF91BF91AF919F918F917F9193
:100FC0006F915F914F913F912F910F900FBE0F90B6
:100FD0001F9018951F920F920FB60F9211242F9306
:100FE0003F934F935F936F937F938F939F93AF93B1
:100FF000BF93EF93FF9389E092E00E94EA01FF9193
:10100000EF91BF91AF919F918F917F916F915F9180
:101010004F913F912F910F900FBE0F901F901895F9
:101020001F920F920FB60F9211242F938F939F93BD
:10103000EF93FF93E0911902F0911A028081E09101
:101040001F02F091200282FD1BC09081809122023C
:101050008F5F8F7320912302821741F0E09122026B
:10106000F0E0E75FFD4F958F80932202FF91EF91B3
:101070009F918F912F910F900FBE0F901F901895F9
:101080008081F4CF1F920F920FB60F9211242F93ED
:101090003F934F935F936F937F938F939F93AF9300
:1010A000BF93EF93FF93E0910401F091050109953F
:1010B000FF91EF91BF91AF919F918F917F916F9130
:1010C0005F914F913F912F910F900FBE0F901F9006
:1010D0001895E9E0F2E01382128288EE93E0A0E036
:1010E000B0E084839583A683B7838AE091E09183FF
:1010F000808385EC90E09587848784EC90E09787E7
:10110000868780EC90E0918B808B81EC90E0938BD4
:10111000828B82EC90E0958B848B86EC90E0978BB1
:10112000868B118E128E138E148EE6EAF2E01382F5
:1011300012828CE191E09183808389E084838FEF38
:10114000858388E0868384E0878385E0808786E0E6
:10115000818787E082871386148615861686178610
:1011600061E080E10C942905789484B5826084BDA7
:1011700084B5816084BD85B5826085BD85B581609B
:1011800085BD80916E00816080936E001092810019
:1011900080918100826080938100809181008160D4
:1011A0008093810080918000816080938000809195
:1011B000B10084608093B1008091B0008160809321
:1011C000B00080917A00846080937A0080917A00E8
:1011D000826080937A0080917A00816080937A00A7
:1011E00080917A00806880937A001092C100E0912B
:1011F0001902F0911A0282E08083E0911502F091C9
:10120000160284E08083E0911702F091180286E5CF
:10121000808310922102E0911D02F0911E0286E06F
:101220008083E0911B02F0911C02808180618083A9
:10123000E0911B02F0911C02808188608083E09124
:101240001B02F0911C02808180688083E0911B0268
:10125000F0911C0280818F7D808362E082E00E9499
:10126000E30080E992E09093010180930001809176
:1012700069008C7F816080936900E89A64E084E172
:101280000E94290560E087E00E94CE0563E371E0DB
:1012900086EA92E00E94500761E08BE00E94E30042
:1012A00061E08DE00E94E30061E08AE00E94E300DB
:1012B00081E58CBD61E08AE00E94E30061E08AE0A4
:1012C0000E94B50061E082E10E94E30061E082E1FA
:1012D0000E94B50061E083E10E94E30061E083E1E8
:1012E0000E94B50080E180938100109280008DE81B
:1012F0009BE5909387008093860085E18093810031
:1013000086ED92E0909305018093040181E0809343
:101310006F00C0E0D0E020E030E040E251E46091B6
:10132000F0017091F1018091F2019091F3010E941E
:101330001A0D6B017C0120E030E04AE754E4609133
:10134000F4017091F5018091F6019091F7010E94EE
:101350001A0D9B01AC01C701B6010E94A90C609354
:10136000E0017093E1018093E2019093E30120E0BA
:1013700030E040E251E46091D0017091D101809160
:10138000D2019091D3010E941A0D6B017C0120E0E3
:1013900030E04AE754E46091D4017091D501809126
:1013A000D6019091D7010E941A0D9B01AC01C70193
:1013B000B6010E94A90C6093C0017093C101809393
:1013C000C2019093C30120E030E040E251E460911B
:1013D000B0017091B1018091B2019091B3010E946E
:1013E0001A0D6B017C0120E030E04AE754E4609183
:1013F000B4017091B5018091B6019091B7010E943E
:101400001A0D9B01AC01C701B6010E94A90C6093A3
:10141000A0017093A1018093A2019093A30120E009
:1014200030E040E251E46091E8017091E90180917F
:10143000EA019091EB010E941A0D6B017C0120E002
:1014400030E04AE754E46091EC017091ED01809145
:10145000EE019091EF010E941A0D9B01AC01C701B2
:10146000B6010E94A90C60939C0170939D0180932A
:101470009E0190939F0120E030E040E251E46091B2
:10148000C8017091C9018091CA019091CB010E945D
:101490001A0D6B017C0120E030E04AE754E46091D2
:1014A000CC017091CD018091CE019091CF010E942D
:1014B0001A0D9B01AC01C701B6010E94A90C6093F3
:1014C00098017093990180939A0190939B0120E079
:1014D00030E040E251E46091A8017091A90180914F
:1014E000AA019091AB010E941A0D6B017C0120E0D2
:1014F00030E04AE754E46091AC017091AD01809115
:10150000AE019091AF010E941A0D9B01AC01C70181
:10151000B6010E94A90C6093940170939501809389
:101520009601909397016091F8017091F901809173
:10153000FA019091FB010E948C0D709393016093CE
:1015400092016091D8017091D9018091DA01909156
:10155000DB010E948C0D709391016093900160916A
:10156000B8017091B9018091BA019091BB010E94BC
:101570008C0D70938F0160938E016091FC017091CE
:10158000FD018091FE019091FF010E948C0D7093EE
:101590008D0160938C016091DC017091DD0180917F
:1015A000DE019091DF010E948C0D70938B0160939E
:1015B0008A016091BC017091BD018091BE01909142
:1015C000BF010E948C0D7093890160938801609126
:1015D000E4017091E5018091E6019091E7010E949C
:1015E0008C0D70938701609386016091C4017091A6
:1015F000C5018091C6019091C7010E948C0D709326
:101600008501609384016091A4017091A50180918E
:10161000A6019091A7010E948C0D709383016093A5
:10162000820161E080E00E94CE056AE371E086EA13
:1016300092E00E94500761E083E00E94CE056EE3D5
:1016400071E086EA92E00E943C0761E085E00E943A
:10165000CE0580918601909187010E940D0761E07F
:1016600087E00E94CE0561E471E086EA92E00E9484
:10167000500761E089E00E94CE0560919C01709165
:101680009D0180919E0190919F010E94380661E02A
:101690008DE00E94CE0564E471E086EA92E00E944B
:1016A000500761E08FE00E94CE056091E0017091EB
:1016B000E1018091E2019091E3010E9438066AE025
:1016C00070E080E090E00E94390162E080E00E94DA
:1016D000CE0567E471E086EA92E00E94500762E07E
:1016E00083E00E94CE056EE371E086EA92E00E94FC
:1016F0003C0762E085E00E94CE05809184019091D4
:1017000085010E940D0762E087E00E94CE0561E43A
:1017100071E086EA92E00E94500762E089E00E9450
:10172000CE05609198017091990180919A019091F4
:101730009B010E94380662E08DE00E94CE0564E4C1
:1017400071E086EA92E00E94500762E08FE00E941A
:10175000CE056091C0017091C1018091C20190914C
:10176000C3010E9438066AE070E080E090E00E94C9
:10177000390163E080E00E94CE056BE471E086EA07
:1017800092E00E94500763E083E00E94CE056EE382
:1017900071E086EA92E00E943C0763E085E00E94E7
:1017A000CE0580918201909183010E940D0763E034
:1017B00087E00E94CE0561E471E086EA92E00E9433
:1017C000500763E089E00E94CE056091940170911A
:1017D000950180919601909197010E94380663E0EF
:1017E0008DE00E94CE0564E471E086EA92E00E94FA
:1017F000500763E08FE00E94CE056091A0017091D8
:10180000A1018091A2019091A3010E9438066AE093
:1018100070E080E090E00E9439016FE471E089E0BF
:1018200092E00E945007809192019091930164E5AB
:1018300071E0892B11F06AE571E089E092E00E9485
:1018400050076EE571E089E092E00E94500762E681
:1018500071E089E092E00E94500780918C019091A4
:101860008D016AE671E0019711F06EE671E089E0A2
:1018700092E00E943C0767E771E089E092E00E94F5
:101880005007809190019091910164E571E0892B5E
:1018900011F06AE571E089E092E00E9450076EE580
:1018A00071E089E092E00E94500762E671E089E011
:1018B00092E00E94500780918A0190918B016AE624
:1018C00071E0019711F06EE671E089E092E00E940C
:1018D0003C076CE771E089E092E00E94500780913C
:1018E0008E0190918F0164E571E0892B11F06AE51A
:1018F00071E089E092E00E9450076EE571E089E0B6
:1019000092E00E94500762E671E089E092E00E9456
:10191000500780918801909189016AE671E00197F2
:1019200011F06EE671E089E092E00E943C0762E30C
:1019300071E089E092E00E943C07209709F4EBCC2B
:101940000E94D601882309F4E6CC0E940000E3CC73
:101950005058BB27AA270E94C00C0C943A0E0E9434
:101960002C0E38F00E94330E20F039F49F3F19F40A
:1019700026F40C94290E0EF4E095E7FB0C94230E4C
:10198000E92F0E944B0E58F3BA17620773078407BA
:10199000950720F079F4A6F50C946D0E0EF4E09501
:1019A0000B2EBA2FA02D0B01B90190010C01CA0119
:1019B000A0011124FF27591B99F0593F50F4503EC4
:1019C00068F11A16F040A22F232F342F4427585FB6
:1019D000F3CF469537952795A795F0405395C9F7CE
:1019E0007EF41F16BA0B620B730B840BBAF0915086
:1019F000A1F0FF0FBB1F661F771F881FC2F70EC025
:101A0000BA0F621F731F841F48F4879577956795F7
:101A1000B795F7959E3F08F0B0CF9395880F08F0E3
:101A20009927EE0F9795879508950E94FF0D08F46A
:101A300081E008950E942E0D0C943A0E0E94330E00
:101A400058F00E942C0E40F029F45F3F29F00C94CE
:101A5000230E51110C946E0E0C94290E0E944B0E05
:101A600068F39923B1F3552391F3951B550BBB27CD
:101A7000AA2762177307840738F09F5F5F4F220F12
:101A8000331F441FAA1FA9F335D00E2E3AF0E0E809
:101A900032D091505040E695001CCAF72BD0FE2F53
:101AA00029D0660F771F881FBB1F261737074807E7
:101AB000AB07B0E809F0BB0B802DBF01FF2793589F
:101AC0005F4F3AF09E3F510578F00C94230E0C9432
:101AD0006E0E5F3FE4F3983ED4F386957795679555
:101AE000B795F7959F5FC9F7880F911D96958795D4
:101AF00097F90895E1E0660F771F881FBB1F6217F3
:101B000073078407BA0720F0621B730B840BBA0BB0
:101B1000EE1F88F7E09508950E94930D6894B11127
:101B20000C946E0E08950E94530E88F09F5798F003
:101B3000B92F9927B751B0F0E1F0660F771F881FD2
:101B4000991F1AF0BA95C9F714C0B13091F00E94EC
:101B50006D0EB1E008950C946D0E672F782F8827D5
:101B6000B85F39F0B93FCCF3869577956795B39513
:101B7000D9F73EF490958095709561957F4F8F4F82
:101B80009F4F0895E89409C097FB3EF49095809587
:101B9000709561957F4F8F4F9F4F9923A9F0F92F33
:101BA00096E9BB279395F695879577956795B795B1
:101BB000F111F8CFFAF4BB0F11F460FF1BC06F5F97
:101BC0007F4F8F4F9F4F16C0882311F096E911C0A9
:101BD000772321F09EE8872F762F05C0662371F0CA
:101BE00096E8862F70E060E02AF09A95660F771FDE
:101BF000881FDAF7880F9695879597F90895990FBA
:101C00000008550FAA0BE0E8FEEF16161706E807C6
:101C1000F907C0F012161306E407F50798F0621BE7
:101C2000730B840B950B39F40A2661F0232B242BBC
:101C3000252B21F408950A2609F4A140A6958FEFDB
:101C4000811D811D089597F99F6780E870E060E02D
:101C500008959FEF80EC089500240A941616170645
:101C600018060906089500240A941216130614068D
:101C700005060895092E0394000C11F4882352F0F0
:101C8000BB0F40F4BF2B11F460FF04C06F5F7F4FA8
:101C90008F4F9F4F089557FD9058440F551F59F08F
:101CA0005F3F71F04795880F97FB991F61F09F3F49
:101CB00079F087950895121613061406551FF2CF72
:101CC0004695F1DF08C0161617061806991FF1CFC2
:101CD00086957105610508940895E894BB276627E9
:101CE0007727CB0197F908950E94FF0D08F48FEF35
:101CF00008950E948C0E0C943A0E0E942C0E38F01F
:101D00000E94330E20F0952311F00C94230E0C94B6
:101D1000290E11240C946E0E0E944B0E70F3959FA9
:101D2000C1F3950F50E0551F629FF001729FBB27D2
:101D3000F00DB11D639FAA27F00DB11DAA1F649F6E
:101D40006627B00DA11D661F829F2227B00DA11D21
:101D5000621F739FB00DA11D621F839FA00D611DA7
:101D6000221F749F3327A00D611D231F849F600DC8
:101D7000211D822F762F6A2F11249F5750409AF0F1
:101D8000F1F088234AF0EE0FFF1FBB1F661F771F7D
:101D9000881F91505040A9F79E3F510580F00C9448
:101DA000230E0C946E0E5F3FE4F3983ED4F38695B9
:101DB00077956795B795F795E7959F5FC1F7FE2BE8
:101DC000880F911D9695879597F908950E94FF0DAC
:101DD000880B990B0895A1E21A2EAA1BBB1BFD01CB
:101DE0000DC0AA1FBB1FEE1FFF1FA217B307E407FA
:101DF000F50720F0A21BB30BE40BF50B661F771F52
:101E0000881F991F1A9469F7609570958095909531
:101E10009B01AC01BD01CF010895EE0FFF1F05909E
:101E2000F491E02D0994F894FFCF6B016B017902D6
:101E3000000000000C026C0199015902CA01A801BE
:101E4000BC0100000000DD056C017B027A026E61BE
:101E50006E00696E66006F7666000D0A004D455390
:101E60005452450050313A00543A00563A00413A33
:101E70000050323A0050333A0050313A20004E6F51
:101E80006974650044696100207C2000424F544120
:101E90004F3A20004E616F204163696F6E61646F3D
:0C1EA0000050323A200050333A2000007D
:107E0000112484B714BE81FFF0D085E080938100F7
:107E100082E08093C00088E18093C10086E0809377
:107E2000C20080E18093C4008EE0C9D0259A86E02C
:107E300020E33CEF91E0309385002093840096BBD3
:107E4000B09BFECF1D9AA8958150A9F7CC24DD24C4
:107E500088248394B5E0AB2EA1E19A2EF3E0BF2EE7
:107E6000A2D0813461F49FD0082FAFD0023811F036
:107E7000013811F484E001C083E08DD089C08234E0
:107E800011F484E103C0853419F485E0A6D080C0E4
:107E9000853579F488D0E82EFF2485D0082F10E0AE
:107EA000102F00270E291F29000F111F8ED06801E7
:107EB0006FC0863521F484E090D080E0DECF843638
:107EC00009F040C070D06FD0082F6DD080E0C81688
:107ED00080E7D80618F4F601B7BEE895C0E0D1E017
:107EE00062D089930C17E1F7F0E0CF16F0E7DF06D8
:107EF00018F0F601B7BEE89568D007B600FCFDCFD4
:107F0000A601A0E0B1E02C9130E011968C91119780
:107F100090E0982F8827822B932B1296FA010C0160
:107F200087BEE89511244E5F5F4FF1E0A038BF0790
:107F300051F7F601A7BEE89507B600FCFDCF97BE46
:107F4000E89526C08437B1F42ED02DD0F82E2BD052
:107F50003CD0F601EF2C8F010F5F1F4F84911BD097
:107F6000EA94F801C1F70894C11CD11CFA94CF0C13
:107F7000D11C0EC0853739F428D08EE10CD085E9AC
:107F80000AD08FE07ACF813511F488E018D01DD067
:107F900080E101D065CF982F8091C00085FFFCCF94
:107FA0009093C60008958091C00087FFFCCF809118
:107FB000C00084FD01C0A8958091C6000895E0E648
:107FC000F0E098E1908380830895EDDF803219F02E
:107FD00088E0F5DFFFCF84E1DECF1F93182FE3DFCA
:107FE0001150E9F7F2DF1F91089580E0E8DFEE27F6
:047FF000FF270994CA
:027FFE00040479
:00000001FF
