:020000040000FA
:100000000C9462000C94EA040C94C3040C948A00CF
:100010000C948A000C948A000C948A000C948A0038
:100020000C948A000C948A000C948A000C948A0028
:100030000C948A000C948A000C948A000C948A0018
:100040000C9479040C948A000C948A000C948A0015
:100050000C948A000C948A000C948A000C948A00F8
:100060000C948A000C948A000000000023002600F3
:10007000290000000008000201000003040700003E
:1000800000000000000000000000250028002B00F8
:1000900000000000240027002A00040404040404D3
:1000A0000404020202020202030303030303010227
:1000B00004081020408001020408102001020408F6
:1000C0001020070611241FBECFEFD8E0DEBFCDBF42
:1000D00011E0A0E0B1E0E0E8F1E102C005900D928E
:1000E000A833B107D9F721E0A8E3B1E001C01D9220
:1000F000A935B207E1F710E0C2E6D0E004C02197CD
:10010000FE010E94B808C136D107C9F70E94110547
:100110000C94BE080C94000090E0FC01E255FF4FE7
:10012000249186569F4FFC018491882399F090E09A
:10013000880F991FFC01E057FF4FA591B491FC0176
:10014000EA57FF4F859194918FB7F894EC91E22B89
:10015000EC938FBF08958230B8F4E82FF0E0EE0FF3
:10016000FF1FE050FF4F71836083813039F0809131
:1001700069008C7F80936900E89A089580916900F6
:10018000837F80936900E99A0895833081F028F491
:10019000813099F08230A9F008958730A9F0883035
:1001A000C9F08430B1F4809180008F7D03C08091CC
:1001B00080008F7780938000089584B58F7784BD09
:1001C000089584B58F7DFBCF8091B0008F778093A9
:1001D000B00008958091B0008F7DF9CFCF93DF9369
:1001E000282F30E0F901EE58FF4F8491F901E255D4
:1001F000FF4FD491F901E656FF4FC491CC23A1F0F3
:1002000081110E94C500EC2FF0E0EE0FFF1FE859AE
:10021000FF4FA591B491EC91ED2381E090E009F4BA
:1002200080E0DF91CF91089580E090E0FACF1F93B6
:10023000CF93DF93282F30E0F901EE58FF4F8491E0
:10024000F901E255FF4FD491F901E656FF4FC491F1
:10025000CC23A9F0162F81110E94C500EC2FF0E0ED
:10026000EE0FFF1FEA57FF4FA591B4918FB7F89497
:10027000EC91111108C0D095DE23DC938FBFDF9184
:10028000CF911F910895DE2BF8CF8E50806480931C
:100290007C0080917A00806480937A0080917A005B
:1002A00086FDFCCF809178009091790008953FB74A
:1002B000F89480913D0190913E01A0913F01B09151
:1002C000400126B5A89B05C02F3F19F00196A11D3E
:1002D000B11D3FBFBA2FA92F982F8827BC01CD0190
:1002E000620F711D811D911D42E0660F771F881FEF
:1002F000991F4A95D1F708958F929F92AF92BF921E
:10030000CF92DF92EF92FF924B015C010E94570166
:100310006B017C010E9457016C197D098E099F09B0
:10032000683E734081059105A8F321E0821A910887
:10033000A108B10888EEC80E83E0D81EE11CF11CAC
:1003400081149104A104B10429F7FF90EF90DF908C
:10035000CF90BF90AF909F908F90089582E00E94C1
:10036000EE00682F83E10E94170168E873E180E0E6
:1003700090E00C947C0160E083E10E94170168E842
:1003800073E180E090E00C947C010895AF92BF92FD
:10039000CF92DF92EF92FF920F931F93CF93DF9351
:1003A0006C017B018B01040F151FEB015E01AE1880
:1003B000BF08C017D10759F06991D601ED91FC91A2
:1003C0000190F081E02DC6010995892B79F7C501CF
:1003D000DF91CF911F910F91FF90EF90DF90CF9021
:1003E000BF90AF900895089590E080E00895FC01DB
:1003F00001900020E9F73197AF01481B590BBC0170
:1004000081E491E00C94C6018F929F92AF92BF92CB
:100410000F931F93CF93DF93CDB7DEB7A1970FB69E
:10042000F894DEBF0FBECDBF19A2423008F44AE0F7
:100430008E010F5D1F4F842E912CB12CA12CA50194
:1004400094010E944406E62FB901CA01EA30F4F48F
:10045000E05DD801EE938D01232B242B252B79F71A
:1004600090E080E0109719F0CD010E94F701A1966D
:100470000FB6F894DEBF0FBECDBFDF91CF911F91B5
:100480000F91BF90AF909F908F900895E95CE1CF5E
:10049000CF93DF93EC0160E08E810E94170161E051
:1004A0008E810E94170160E08E810E9417018BE807
:1004B00091E00197F1F7DF91CF910895CF92DF920C
:1004C000EF92FF920F931F93CF93DF936C017C0108
:1004D00087E0E80EF11CD0E0C0E0062F10E0B80184
:1004E0000C2E02C0759567950A94E2F76170F701CA
:1004F00081917F010E9417012196C430D10579F7BF
:10050000C601DF91CF911F910F91FF90EF90DF9087
:10051000CF900C944802CF92DF92EF92FF920F930C
:100520001F93CF93DF93EC01F62E642F8C810E94F2
:1005300017018D818F3F19F060E00E9417010F2D88
:1005400010E08F8584FF25C06E0187E0C80ED11CA6
:10055000F12CE12CB8010E2C02C0759567950A9418
:10056000E2F76170F60181916F010E941701FFEFC0
:10057000EF1AFF0A88E0E816F10461F7CE01DF9177
:10058000CF911F910F91FF90EF90DF90CF900C943F
:100590004802B80184E0759567958A95E1F7CE0128
:1005A0000E945E026F2DCE01DF91CF911F910F91BE
:1005B000FF90EF90DF90CF900C945E0240E0682FA8
:1005C00081E491E00C948B02CF93DF93813029F08A
:1005D0009091500198609093500180935401109233
:1005E000550180E48093560180E18093570180E5B6
:1005F00080935801809145010E948C0080914601B2
:100600008F3F11F00E948C00809147010E948C0066
:10061000C1E4D1E09E01215431408091500184FD1C
:100620000AC084E090E02196281739073CF48E81B7
:100630000E948C00EFCF88E090E0F5CF8BE39DE047
:100640000197F1F760E0809145010E94170160E099
:10065000809147010E941701809146018F3F19F058
:1006600060E00E9417018091500184FD39C063E071
:1006700081E491E00E945E02CBE4D6E4CE010197D2
:10068000F1F763E081E491E00E945E022197F1F7C7
:1006900063E081E491E00E945E0283E592E00197CD
:1006A000F1F762E081E491E00E945E0280915001E6
:1006B00080620E94DE0284E0809351018CE00E94FF
:1006C000DE0281E00E94DE028BE39FE10197F1F7F9
:1006D00082E08093520186E0DF91CF910C94DE029C
:1006E00080620E94DE028BE496E40197F1F780912C
:1006F000500180620E94DE0283E592E00197F1F7EB
:100700008091500180620E94DE02D0CF909154010E
:10071000691710F06FEF690FE62FF0E0EF5BFE4F07
:100720009489890F80680C94DE0241E00E948B025C
:1007300081E090E008954F925F926F927F928F9246
:100740009F92AF92BF92CF92DF92EF92FF920F9360
:100750001F93CF936B017C01742EAC019B010E940F
:10076000AC08882399F080E191E0CF911F910F911F
:10077000FF90EF90DF90CF90BF90AF909F908F90C1
:100780007F906F905F904F900C94F7014601570156
:10079000E894B7F82FEF3FEF4FE75FE7C501B401EB
:1007A0000E94AC0881110DC02FEF3FEF4FE75FE7CC
:1007B000C501B4010E94E20618161CF484E191E020
:1007C000D4CF2FEF3FEF4FE75FE4C701B6010E94A0
:1007D0003A0818161CF488E191E0C7CF2FEF3FEFDD
:1007E0004FE75FECC701B6010E94E20687FDF3CF39
:1007F00020E030E0A901C701B6010E94E20610E046
:1008000000E087FF0CC041E06DE281E491E00E94CE
:100810008B02F7FAF094F7F8F09401E010E0C0E0F2
:1008200060E070E080E09FE37C1641F020E030E083
:1008300040E251E40E94E706CF5FF6CFA7019601A0
:100840000E9476064B015C010E9459072B013C0176
:100850004AE00E940402080F191FCC23C9F1C3010A
:10086000B2010E9488079B01AC01C501B4010E943E
:1008700075064B015C0141E06EE281E491E00E946B
:100880008B020F5F1F4FC15018F120E030E040E2B3
:1008900051E4C501B4010E943F082B013C010E94B4
:1008A00059074B01B12CA12C4AE0C501B4010E94AB
:1008B0000402080F191FC501B4010E9488079B019B
:1008C000AC01C301B2010E9475064B015C01DBCF94
:1008D000C801CF911F910F91FF90EF90DF90CF90C3
:1008E000BF90AF909F908F907F906F905F904F9050
:1008F00008951F920F920FB60F9211242F933F93DA
:100900008F939F93AF93BF938091390190913A0158
:10091000A0913B01B0913C013091380123E0230FBD
:100920002D3758F50196A11DB11D209338018093F4
:10093000390190933A01A0933B01B0933C0180911F
:100940003D0190913E01A0913F01B091400101967F
:10095000A11DB11D80933D0190933E01A0933F01E5
:10096000B0934001BF91AF919F918F913F912F9193
:100970000F900FBE0F901F90189526E8230F029638
:10098000A11DB11DD2CF1F920F920FB60F9211244D
:100990002F933F934F935F936F937F938F939F9387
:1009A000AF93BF93EF93FF93E0910201F0910301A6
:1009B0000995FF91EF91BF91AF919F918F917F9199
:1009C0006F915F914F913F912F910F900FBE0F90BC
:1009D0001F9018951F920F920FB60F9211242F930C
:1009E0003F934F935F936F937F938F939F93AF93B7
:1009F000BF93EF93FF93E0910001F09101010995FE
:100A0000FF91EF91BF91AF919F918F917F916F91E6
:100A10005F914F913F912F910F900FBE0F901F90BC
:100A20001895789484B5826084BD84B5816084BD56
:100A300085B5826085BD85B5816085BD80916E007C
:100A4000816080936E0010928100809181008260AD
:100A500080938100809181008160809381008091EA
:100A600080008160809380008091B10084608093D9
:100A7000B1008091B00081608093B00080917A00D5
:100A8000846080937A0080917A00826080937A00FB
:100A900080917A00816080937A0080917A008068EA
:100AA00080937A001092C10061E083E10E941701F7
:100AB00083E10E948C006EEA71E080E00E94AB004E
:100AC0006BEB71E081E00E94AB0064E670E080E0D7
:100AD00090E00E947C0184E00E94E4028CE191E0BD
:100AE0000E94F701CC24CA9483E0D82EE12CF12C8B
:100AF00000E010E083E00E94EE00019739F482E00C
:100B00000E94EE00682F83E10E9417018EE00E9490
:100B100045015C018FE00E94450124EF31E0DC01DA
:100B20000E94B108A70196010E942506CA01B901D9
:100B30000E948A072B013C0180E10E944501EC01E3
:100B400061E080E00E94860384E291E00E94F70168
:100B500061E086E00E94860324EF31E0D5010E9427
:100B6000B108A70196010E942506CA01B9010E9499
:100B70008A0742E00E949B0362E080E00E948603B5
:100B80008AE291E00E94F70162E086E00E9486031B
:100B900020E030E048EC52E4C301B2010E94E706D5
:100BA00042E00E949B0363E080E00E94860381E3B1
:100BB00091E00E94F70163E086E00E948603BE0197
:100BC000DD0F880B990B0E948A072AE038E240EA81
:100BD0005BE30E943F0820E030E040E250E40E94E6
:100BE00075062DEC3CEC4CEC5DE30E94E70642E020
:100BF0000E949B0364E670E080E090E00E947C012C
:100C00000115110509F476CF0E94000073CFE1E4CD
:100C1000F1E01382128288E091E09183808389E081
:100C200084838FEF858388E0868384E0878385E0F3
:100C3000808786E0818787E0828713861486158601
:100C40001686178681E00C94E402052E97FB1EF4AD
:100C500000940E943C0657FD07D00E94440607FC02
:100C600003D04EF40C943C06509540953095219558
:100C70003F4F4F4F5F4F08959095809570956195C8
:100C80007F4F8F4F9F4F0895A1E21A2EAA1BBB1BC7
:100C9000FD010DC0AA1FBB1FEE1FFF1FA217B30748
:100CA000E407F50720F0A21BB30BE40BF50B661F5E
:100CB000771F881F991F1A9469F760957095809522
:100CC00090959B01AC01BD01CF010895A29FB00199
:100CD000B39FC001A39F700D811D1124911DB29F70
:100CE000700D811D1124911D08955058BB27AA270E
:100CF0000E948D060C9400080E94F20738F00E94B2
:100D0000F90720F039F49F3F19F426F40C94EF070B
:100D10000EF4E095E7FB0C94E907E92F0E94110817
:100D200058F3BA17620773078407950720F079F420
:100D3000A6F50C9433080EF4E0950B2EBA2FA02DD7
:100D40000B01B90190010C01CA01A0011124FF2778
:100D5000591B99F0593F50F4503E68F11A16F04073
:100D6000A22F232F342F4427585FF3CF4695379572
:100D70002795A795F0405395C9F77EF41F16BA0B37
:100D8000620B730B840BBAF09150A1F0FF0FBB1FE5
:100D9000661F771F881FC2F70EC0BA0F621F731F2E
:100DA000841F48F4879577956795B795F7959E3F8B
:100DB00008F0B0CF9395880F08F09927EE0F97951C
:100DC000879508950E94C50708F481E008950E9460
:100DD000FB060C9400080E94F90758F00E94F207E5
:100DE00040F029F45F3F29F00C94E90751110C946D
:100DF00034080C94EF070E94110868F39923B1F3AB
:100E0000552391F3951B550BBB27AA276217730730
:100E1000840738F09F5F5F4F220F331F441FAA1FC4
:100E2000A9F335D00E2E3AF0E0E832D09150504080
:100E3000E695001CCAF72BD0FE2F29D0660F771F2E
:100E4000881FBB1F261737074807AB07B0E809F014
:100E5000BB0B802DBF01FF2793585F4F3AF09E3F99
:100E6000510578F00C94E9070C9434085F3FE4F3E3
:100E7000983ED4F3869577956795B795F7959F5FDC
:100E8000C9F7880F911D9695879597F90895E1E028
:100E9000660F771F881FBB1F621773078407BA0787
:100EA00020F0621B730B840BBA0BEE1F88F7E095E2
:100EB00008950E94190888F09F5798F0B92F992734
:100EC000B751B0F0E1F0660F771F881F991F1AF035
:100ED000BA95C9F714C0B13091F00E943308B1E05F
:100EE00008950C943308672F782F8827B85F39F05E
:100EF000B93FCCF3869577956795B395D9F73EF4CE
:100F000090958095709561957F4F8F4F9F4F089575
:100F1000E89409C097FB3EF4909580957095619593
:100F20007F4F8F4F9F4F9923A9F0F92F96E9BB2749
:100F30009395F695879577956795B795F111F8CFC5
:100F4000FAF4BB0F11F460FF1BC06F5F7F4F8F4F30
:100F50009F4F16C0882311F096E911C0772321F026
:100F60009EE8872F762F05C0662371F096E8862FBE
:100F700070E060E02AF09A95660F771F881FDAF715
:100F8000880F9695879597F90895990F0008550F42
:100F9000AA0BE0E8FEEF16161706E807F907C0F0FF
:100FA00012161306E407F50798F0621B730B840B07
:100FB000950B39F40A2661F0232B242B252B21F4E1
:100FC00008950A2609F4A140A6958FEF811D811D81
:100FD000089597F99F6780E870E060E008959FEFBB
:100FE00080EC089500240A941616170618060906C0
:100FF000089500240A94121613061406050608958F
:10100000092E0394000C11F4882352F0BB0F40F416
:10101000BF2B11F460FF04C06F5F7F4F8F4F9F4F56
:10102000089557FD9058440F551F59F05F3F71F0D8
:101030004795880F97FB991F61F09F3F79F087953F
:101040000895121613061406551FF2CF4695F1DFC8
:1010500008C0161617061806991FF1CF8695710558
:10106000610508940895E894BB2766277727CB018C
:1010700097F908950E94C50708F48FEF08950E941C
:1010800052080C9400080E94F20738F00E94F907F9
:1010900020F0952311F00C94E9070C94EF0711242C
:1010A0000C9434080E94110870F3959FC1F3950FBA
:1010B00050E0551F629FF001729FBB27F00DB11DDC
:1010C000639FAA27F00DB11DAA1F649F6627B00D6C
:1010D000A11D661F829F2227B00DA11D621F739F55
:1010E000B00DA11D621F839FA00D611D221F749F63
:1010F0003327A00D611D231F849F600D211D822FAA
:10110000762F6A2F11249F5750409AF0F1F08823D0
:101110004AF0EE0FFF1FBB1F661F771F881F9150FD
:101120005040A9F79E3F510580F00C94E9070C94BC
:1011300034085F3FE4F3983ED4F38695779567953E
:10114000B795F795E7959F5FC1F7FE2B880F911D27
:101150009695879597F908950E94C507880B990B76
:1011600008950E946606B7FF0895821B930B0895A9
:10117000EE0FFF1F0590F491E02D0994F894FFCF36
:10118000C501C501000000009503C601F401F3018B
:101190006E616E00696E66006F766600506F7374E4
:1011A00065203300542843293A0054286D56293AC3
:0811B00000432841293A000028
:107E0000112484B714BE81FFF0D085E080938100F7
:107E100082E08093C00088E18093C10086E0809377
:107E2000C20080E18093C4008EE0C9D0259A86E02C
:107E300020E33CEF91E0309385002093840096BBD3
:107E4000B09BFECF1D9AA8958150A9F7CC24DD24C4
:107E500088248394B5E0AB2EA1E19A2EF3E0BF2EE7
:107E6000A2D0813461F49FD0082FAFD0023811F036
:107E7000013811F484E001C083E08DD089C08234E0
:107E800011F484E103C0853419F485E0A6D080C0E4
:107E9000853579F488D0E82EFF2485D0082F10E0AE
:107EA000102F00270E291F29000F111F8ED06801E7
:107EB0006FC0863521F484E090D080E0DECF843638
:107EC00009F040C070D06FD0082F6DD080E0C81688
:107ED00080E7D80618F4F601B7BEE895C0E0D1E017
:107EE00062D089930C17E1F7F0E0CF16F0E7DF06D8
:107EF00018F0F601B7BEE89568D007B600FCFDCFD4
:107F0000A601A0E0B1E02C9130E011968C91119780
:107F100090E0982F8827822B932B1296FA010C0160
:107F200087BEE89511244E5F5F4FF1E0A038BF0790
:107F300051F7F601A7BEE89507B600FCFDCF97BE46
:107F4000E89526C08437B1F42ED02DD0F82E2BD052
:107F50003CD0F601EF2C8F010F5F1F4F84911BD097
:107F6000EA94F801C1F70894C11CD11CFA94CF0C13
:107F7000D11C0EC0853739F428D08EE10CD085E9AC
:107F80000AD08FE07ACF813511F488E018D01DD067
:107F900080E101D065CF982F8091C00085FFFCCF94
:107FA0009093C60008958091C00087FFFCCF809118
:107FB000C00084FD01C0A8958091C6000895E0E648
:107FC000F0E098E1908380830895EDDF803219F02E
:107FD00088E0F5DFFFCF84E1DECF1F93182FE3DFCA
:107FE0001150E9F7F2DF1F91089580E0E8DFEE27F6
:047FF000FF270994CA
:027FFE00040479
:00000001FF
